:02000002E0001C
:1020000029200E0095200E0039200E007D8A0F0039
:1020100059E50E0075640E00758A0F00818A0F0065
:08202000798A0F00B9930F004B
:1020280000B5024880475DF804EB7047C5960F007D
:1020380071460420084202D0EFF3098101E0EFF372
:102048000881886902380078102813DB20280FDB04
:102058002D280BDB084A1268084B9A4203D16028E6
:1020680004DB074A1047022008607047054A1047FA
:10207800054A1047FFDF0000640D0020BEBAFECA03
:1020880071640E00898A0F00CD990F0012490978F2
:10209800D9B904207146084217D106990F4A9142CE
:1020A80013DA0F4A914200DA0FDB069902290CDB9A
:1020B80002394878DF2808D10878FF2805D14FF081
:1020C80001004FF00002074B18474FF0FF307146F0
:1020D8004FF00002034B184728ED00E000CC0F003A
:1020E80000200E00F9960F0007282DD01AB1012AFA
:1020F8000BD0812070474B7803F00703042BF8D8E6
:10210800DFE803F007220C131B004B78C3F3C2036C
:10211800F4E7002A14BF032002207047032813D8CD
:1021280000280CBF05200F20704704280CD802385F
:10213800012894BF0F2005207047062804D00328E3
:102148000CBF0F20052070470020704773B5144658
:10215800ADF80410BDF8042003462280227842F02E
:10216800040222709DF90420002A13DA104A9DF80F
:102178000410927AA068C1F3001193420CD3FE2B8D
:1021880004D107324942D20819F042F9237823F0E2
:102198001003237002B070BDDE08012503F00703A9
:1021A800825D9D40994022EA05020A438255EDE787
:1021B80018030020064BDA88824206D330B10C227D
:1021C8001B6850430C38184470470020704700BF04
:1021D80018030020820682B0C3B20BD41B0606D5B2
:1021E800054B9B7ADA1D4B4303EBD20399B20846A1
:1021F80002B070470021FAE7180300201388F0B5F1
:102208000B8091F90030002B26DA144B0C789B7A5E
:10221800984204D344F0100400200C70F0BD956877
:10222800C60800F007070733AE5DDB103E4166F3D2
:1022380004140C701178D27801F0030142EA0122EB
:1022480040F20121B2FBF1F101EB4121521A92B2A5
:1022580000FB02302844E1E79068DFE7180300201C
:1022680010B5044649B1042115F0CCFF38B1204619
:102278000421BDE8104016F04DB8084610BDFF20F7
:10228800FCE700002DE9F7438146084616461D463F
:10229800FFF790FF0446DDE90A7800285CD0017852
:1022A800480759D5B9F1000F4FDA5FFA89F92E4B73
:1022B8009B7A4B4552D9224601A94846FFF79EFF13
:1022C8002278E37840F2012102F0030243EA022374
:1022D8006A04B3FBF1F101EB4121A3EB010189B2DF
:1022E8000AD58B4208D194F802C022790CF0030C6D
:1022F80042EA0C22B24233D3B14231D3C5F30D02C4
:102308009519ADB2A9422DD38B4205D1A378290ADC
:10231800257161F30103A370B8F1000F01D0A8F88B
:10232800002077B13946304419F0BEF89DF80430E2
:102338002246484623F010038DF804300199FFF730
:1023480005FF002003B0BDE8F0831FFA89F0C90932
:10235800FFF786FF8146AAE70120F3E78720F1E728
:102368000720EFE70D20EDE718030020CB1C23F032
:10237800030399422DE9F04107460D462ED1184C2A
:1023880000230E4640F201282160A0802381A2721A
:10239800E380337813F0040001D1BDE8F081E288CE
:1023A8000132E28013F0200216D103F00302F17823
:1023B800707841EA022143EA0020B1FBF8F202EB0F
:1023C8004222891A89B2FFF705FF238903449BB289
:1023D8002381FB1A2B44B3600C36DAE78620DCE74E
:1023E80018030020044AD388108903EB4303013003
:1023F80000EB830080B27047180300202DE9F04FEE
:1024080040F2012487B081461546ADF814100293B6
:10241800BDF8403005980393B2FBF4F404EB442470
:10242800141BA4B22146FFF7D5FE0146FFF7DAFFD9
:10243800DFF8F4C00C30BCF8042008449042DDE911
:1024480011766CDC9DF8148008F0A003A02B68D0EE
:10245800BCF80600DCF800A0431C9BB2ACF80630C0
:1024680006B1338018F0200B09BFBCF80860394664
:10247800891989B204BFACF80810511A4FF00C0240
:1024880008BF514402FB00F6FE200AEB06029160E9
:1024980005990492FFF75AFE049A18F0800FDFF8A6
:1024A8008880D570C5F3012514714FEA14241AF8F1
:1024B800061045F0040521F0070145EA01050AF870
:1024C800065008BF0125917864F301014FF000041C
:1024D8009170264699F802105171B9F80010D18010
:1024E8004FF0000111731CBF0F4A957ABBF1000F22
:1024F80018BF0027E3B29D4201D800200CE044F049
:1025080000400134CDE90076DDE90223B8F8061071
:10251800FFF7B8FE0028EDD007B0BDE8F08F8420A3
:10252800FAE70620F8E700BF180300202DE9F34773
:102538000446084692461D46FFF73CFE8146DDE903
:102548000A6700283ED001784B073BD5C9092046C9
:10255800FFF786FE1F4B9B7A834235D901A94A466D
:10256800FFF74CFE99F8023099F80440BAF5806FED
:1025780003F00303CAF3090844EA03210C460DD308
:1025880099F8002099F8033002F0030243EA022385
:10259800B3F5007F02DD6B1E8B4217DCA04517D810
:1025A800A4EB080292B2AA4228BF2A4607B13A8091
:1025B80026B100EB0801304618F076FF002002B083
:1025C800BDE8F0870120FAE78720F8E70B20F6E757
:1025D8000720F4E7180300202DE9F0470446FFF729
:1025E800E9FD064668B3184F25464FF0000940F24A
:1025F8000128B7F806A0AA4509D23B89013C00206A
:10260800A3EB0903FC8030703B81BDE8F0872846C6
:102618000135FFF7CFFD0278C178ADB202F00303B0
:10262800407841EA032142EA0020B1FBF8F303EBCA
:102638004323C91A89B2FFF7CDFD48441FFA80F930
:10264800D9E70120E1E700BF1803002010B51446C0
:1026580039B1013911800121FFF702FEA070002075
:1026680010BD0120FCE70000F8B5154B04460C2707
:10267800DE8818682388B3421FD207FB03F142188B
:102688001BD0415C5D1C11F0040F14D05379A37268
:10269800D3889078238100F00300117941EA002162
:1026A800A078A181E11CFFF7A9FD2061ABB2002051
:1026B8002380E38002E02580DCE70A20F8BD00BF24
:1026C80018030020012303827047000073B50646F3
:1026D80008461D46ADF80420FFF76CFD044658B3C4
:1026E80001784B0728D5C9093046FFF7B9FD144BC7
:1026F8009B7A834222D922460199FFF727FDFF2DB5
:1027080017D0237840F20122E17803F0030341EA6D
:102718000321B1FBF2F202EB4222891A89B215B900
:1027280001F2012189B22378E170090A61F30103FA
:102738002370002002B070BD0120FBE78720F9E775
:1027480018030020F8B50646084617461D46FFF749
:1027580031FD0446F8B101784B071CD5C90930464C
:10276800FFF77EFD224639460646FFF747FD5DB175
:102778002378E27803F0030342EA0322B2F5007FEC
:10278800CCBF002201222A70044B987AB04294BF31
:1027980087200020F8BD0120FCE700BF18030020B7
:1027A80090F82F30C279C3F30103134063F3010299
:1027B80013F00103C2711BBF837A90F83220837231
:1027C80013401FBF90F831208372437A13408278F8
:1027D8004372037A9A4288BF8370704770B5037852
:1027E80004460D46052B08D003F0F703012B11D141
:1027F8000169042017F088F90CE083680169042056
:102808001E7817F081F9052E04D0054A04202169A5
:1028180017F03EF929462046BDE8704000F074B82C
:1028280080C3C90170B5044608461146154600F034
:1028380013F8064674B12378FE2B0BD1237C33B1F1
:102848000023294604F10C002B7000F005F82046FF
:1028580001F0B4FB304670BD2DE9F041054686B065
:102868000F460124DFF850802B79013B55F823608F
:102878007378013BDAB2012A05D858F82330394673
:10288800304698470446012C11D82B79013BD9B220
:10289800297171B90A2301A802968DF80430336AA8
:1028A800059307F027F9204606B0BDE8F081032C10
:1028B800F9D10324D8E700BFD8450E0010B5044667
:1028C8000146042017F020F92146034A0420BDE8F8
:1028D800104017F0DDB800BF80C3C90138B50D46F8
:1028E80080220021044618F093FD012D01D0022D0D
:1028F80007D12046657001F061FB02230020A37513
:1029080038BD0520FCE7000038B50C4669B1002346
:1029180005780B7007F0EEF8064B20782B441B7AED
:10292800834214BF0220032038BD07F0E3F8204695
:10293800FAE700BFD8450E0010B50379012B0CD07B
:102948004C780022012C0A7004BF0A744A615A1C90
:10295800027140F82310032010BD0420FCE72DE984
:10296800F04788B00C4611460546DDF848A004AE8D
:10297800DDE91029D0464F4617F8010BC0F3400097
:102988008DF8100018F8010BC0F340008DF8110005
:102998001868CDF8120098889B79ADF8160068463B
:1029A8008DF818301368CDF819309388ADF81D30BC
:1029B800937932468DF81F30102315F09FFE2A4672
:1029C80069462046032318F08CFBB8F80430DAF87F
:1029D80001003246ADF814302946D9F80130049088
:1029E8006846CDF81630BB88ADF81A300023079337
:1029F800102315F083FE03232A466946204618F063
:102A080070FB08B0BDE8F08773B5437800240E4624
:102A1800012B8DF8044003D0022B12D06D4607E03D
:102A2800C468002CFAD0237C002BF7D104F10C05E4
:102A380001462846FFF780FF032804D0042002B08F
:102A480070BD0469EDE7324629462046FFF7EAFEE5
:102A58009DF80430002BF2D0F0E700002DE9F04398
:102A680089B0054690461C460E46DDE9107919B333
:102A7800032302462B49304618F033FB102229461F
:102A8800384615F045FE95F90F30002B05DA10236E
:102A9800254A3946384615F031FE1022394648464F
:102AA80015F036FE97F90F30002B05DA10231E4A71
:102AB8004946484615F022FE10220021284618F003
:102AC800A7FC102C14D822D123463A46414604A824
:102AD80015F014FE2A4601461023684615F00EFE2E
:102AE80003236946304618F0FCFA09B0BDE8F083C4
:102AF800103C684610232A46A4B208EB040115F0DE
:102B0800FDFD03236946304618F0EBFAD9E7E2B237
:102B18004146684615F0DCFD10234A4669460DEB30
:102B28000300D5E7A2450E00B2450E001FB51B886D
:102B3800044612880846ADF802300023ADF800209C
:102B4800694603932246CDE90133032318F0C9FAF5
:102B580004B010BD30B589B004460D461068516800
:102B68006B4604AA03C3002369462846CDE902330D
:102B7800032318F0B6FABDF81030238009B030BD31
:102B8800F0B5027887B000230446012A06698DF85B
:102B9800083047D0022A00F0BE8012B1012007B0E9
:102BA800F0BD0379013B032BF8D8DFE803F0020BF3
:102BB80008237378012B40F0BC8002230AE01D2310
:102BC8003370FAE77378022B40F0B38033780C2B1C
:102BD800E4D1072301228DF80830227022899A4215
:102BE80016D2082301A88DF80430236A0593FFF74D
:102BF8008BFED4E7B37D022BD0D132781D2ACDD8F5
:102C08004D4BD340DB07C9D50389012BD5D8C5E780
:102C18000B46052203F8042BD4E9020183E80300DC
:102C28000320BCE70A78052AB8D18DF80420026A87
:102C38008D6805929DF81020039563F300020379CF
:102C4800013B8DF81020032BA8D8DFE803F00224FD
:102C5800125802270B230021ADF808702B70037D52
:102C680001A803F01F036B70FFF7B8FD3770002051
:102C780095E79DF81030022243F00103ADF80820D3
:102C88008DF8103005232B70037D6B70027001A83E
:102C9800FFF7A4FD83E707230021ADF808300123DF
:102CA8002B70037E6B70437E03F00103AB70837E51
:102CB80003F01F03EB70C37E2B71EB7813F0010355
:102CC80015BF037FAB7103F007036B711CBF6B71FA
:102CD800437F01A81CBF03F00703AB71FFF77EFD1C
:102CE8002B68F362AB883386AB7986F83230636938
:102CF8005B7873752B79B3700D233370B7E70223B4
:102D0800ADF808300E232B70037D6B70002101A8ED
:102D1800FFF764FDABE7FE22327001228DF8042034
:102D2800026A059203228DF80820027D8DF8092099
:102D3800ECE7052033E700BFF0C0012070B59CB078
:102D48000C46194602F120059DF880308DF82C308C
:102D58000DF12D0352F8046BAA4243F8046BF9D124
:102D680022460DF14D03203452F8045BA24243F889
:102D7800045BF9D107AB0BAA019303AB0093412382
:102D8800FFF76CFE1CB070BD2DE9F04FA1B01C46DA
:102D980020230DF1280B0DF1180A2C9ECDF804B054
:102DA800CDF800A0CDE904014D490EA8DDE92A754A
:102DB800FFF754FE4FF4807305F101080DF1580C2C
:102DC800ADF84830731C07F1100E0393D6F80130A4
:102DD800CDF84A30B6F80530ADF84E303378C3F345
:102DE80040038DF85030D5F80130CDF85130B5F8A2
:102DF8000530ADF855302B78C3F340038DF85730C4
:102E08003B461868083353F8041C6246734503C2EE
:102E18009446F6D123460DF1680C04F1100E18689B
:102E2800083353F8041C6246734503C29446F6D12E
:102E38000023DFF8B09012AA0EA98DF87C30352354
:102E48000498CDF87890CDE900ABFFF707FE4FF472
:102E58008073ADF84830D6F80130CDF84A30039B7E
:102E68009B88ADF84E30337807F11006C3F3400362
:102E78008DF85030D5F80130CDF85130B8F804301D
:102E8800ADF855302B7816ADC3F340038DF85730A5
:102E98003B461868083353F8041C2A46B34203C259
:102EA8001546F6D11AAA04F110052068083454F81A
:102EB800041C1346AC4203C31A46F6D1012312AAD6
:102EC8000EA905988DF87C300AABCDF8789001935F
:102ED80006AB00933523FFF7C1FD21B0BDE8F08FA5
:102EE800C2450E00656C7462F0B59DB00546259E1E
:102EF800D6F801000B90B6F80500ADF83000307830
:102F0800DDE92374C0F340008DF83200D4F80100E5
:102F1800CDF83300B4F80500ADF837002078229CCE
:102F2800C0F3400004F110068DF839003888ADF878
:102F38003A00B8788DF83C000DF13D0054F8047B58
:102F4800B44240F8047BF9D10DF14D0003F11004AF
:102F580053F8046BA34240F8046BF9D10DF15D03FB
:102F680002F1100052F8044B824243F8044BF9D1A5
:102F780007AB0BAA2846019303AB00934123FFF745
:102F88006DFD1DB0F0BDF0B5A3B09C4606460C46DD
:102F9800289D0EAB05F1100E2868083555F8041C5D
:102FA8001F46754503C73B46F6D112AB02F1200711
:102FB8001068083252F8041C1D46BA4203C52B4655
:102FC800F6D122461AAB04F120051068083252F8EF
:102FD800041C1C46AA4203C42346F6D106AB0EAA1B
:102FE80061460AA8019302AB00935023FFF736FD10
:102FF8000A9B336023B0F0BD2DE9F04300238FB066
:1030080090F800C005460F46C4688DF82430BCF11E
:103018001B0F00F28780DFE81CF01C00EC02320373
:103028004E0389039403A903DB03F80356048104C0
:10303800C904F104FD043F0587059405B705B905E2
:103048003B067D067F06B206CF0649076C072E07AA
:10305800350714B123781D2B36D0AE68002E61D009
:103068000123296A8DF8243040F602230D91ADF82A
:1030780028306B690B93AB88002B53D03278501EE5
:103088000D2821D8023A0C2A23D8DFE812F0700064
:10309800EB0040011C0230025002790299024B00F9
:1030A8000D00AF00AD010102022B3BD114B1237812
:1030B8000C2B09D102238DF8243073788DF8283031
:1030C800002109A8FFF78AFB002630460FB0BDE8AB
:1030D800F083042016F018FDAB88072B22D10CB31F
:1030E8002378022B02D01A1F022A19D80123237031
:1030F8003379DA1F092A1AD90A232B741D23394672
:1031080009A8237018232B7008238DF824302B6A04
:103118000D9302238DF82830FFF7F6FB0646D4E717
:10312800012BE5D02B7C002B00F0F086E6E7A3709E
:1031380003223368E362B3882386B37984F8323094
:1031480001232B70234603F82D2B0A93631D8DF85A
:1031580024200B9304F114032A6A0C930D92394628
:1031680009A8FFF7D1FB0646012EAED1DAE7072BF7
:10317800D8D1002CD6D023780D2BD3D1F17894F860
:103188002F20C1F3C0038807C2F3C00203EA020379
:103198007279C3F10703DBB204D11342ACD1B17920
:1031A8000B42A9D194F8311022EA01021A42A3D1A4
:1031B80094F83210B27922EA01021A429CD133798A
:1031C800DA1F092A98D8627D9A4201D9062394E722
:1031D80033680E226360B3882381B379A372012315
:1031E8002B70234603F82D2B0322AEE7412B99D1F0
:1031F800002C97D02378042B24D1E378D90791D5D4
:10320800731CE269413653F8041BB34242F8041BAD
:10321800F9D10B23002109A88DF824302B6A0D93CE
:10322800E3690A93FFF7DAFA2378042B0ED1052312
:10323800237003232B7008238DF824302B6A0D93F9
:10324800412314E20F2B7FF46DAFD9E7A37D012B47
:1032580002D81123237037E7032B14BF102312233E
:10326800237048E0112B7FF45DAF002C3FF45AAF78
:103278002378042B17D1E378DA073FF553AFA0463C
:1032880006F1010958F8403B23F07E4303F0FF2381
:10329800B3F5007F13D110224146484618F0A8F82C
:1032A80068B9042329E7062B07D1E378DB07E6D4BE
:1032B800A37D022B7FF436AFE1E7112BFAE74846EE
:1032C800113650F8043BB04248F8043BF9D1617814
:1032D800012914BF122307232370E378D80711D5D7
:1032E8000129A27D40F02686022A40F01E8603F0BE
:1032F8003E03022B09D104232B700C238DF82430B4
:103308002B6A67E0012940F01886052358E0112B45
:103318007FF408AF002C3FF405AF2378082B02D0C8
:10332800132B7FF4FFAE04F17002711C11361046A6
:1033380051F804EBB14240F804EBF9D1082B14BF63
:10334800142309232370E378D9071FD5A67D022EFD
:1033580004D06178022935D1012E30D8022ED4E963
:1033680006010BD1666BC3F34403D6F800C0013BDA
:103378002CFA03FC0CF0010C4CF0800C1346CDF831
:1033880000C0024605A8FFF7D9FC0BE0A36A05A810
:103398000293636A0193231D009304F12C03616B6C
:1033A800FFF7DDFA102205A904F1400018F020F813
:1033B80000287FF476AF2378092B00F0BF850A2315
:1033C8002B70CDE1032E2B6A06D104222A700C2221
:1033D8008DF824200D93C2E609222A7008228DF860
:1033E80024200D93112342E1112B7FF49BAE002C76
:1033F8003FF498AE23780A2B13D1E278D2077FF5F1
:1034080091AE04F14008721C1136414652F8040B83
:10341800B24241F8040BF9D10A2B06D10B232370D1
:10342800CEE7152B7FF47EAEEBE72346162204F198
:10343800500105A803F8602B626A0392A26A0292FF
:10344800621D0192626B009204F17002FFF74CFD5D
:10345800102205A9404617F0CBFF0646002840F089
:10346800168320463146FFF79BF9A378206AC3F1FB
:103478001002184417F0CCFF0F232B7006230A966E
:103488008DF824302B6A0D93A3788DF82C3066E6DE
:10349800022B7FF447AE002C3FF444AE23781A1F6A
:1034A800032A03D90E3B032B3FF63CAEA37D022B28
:1034B8007FF438AE0846FFF701FA0E238DF8243062
:1034C8002B6A0D93F9E5022B7FF42CAE002C3FF408
:1034D80029AE2378012B7FF625AE0C2B3FF422AEC4
:1034E80004238DF8283073788DF829301AE6112BCB
:1034F8007FF418AE002C3FF415AE2378172B7FF419
:1035080011AE62781421636A971E7A427A4101FBF0
:103518000232731C1136926953F8041BB34242F805
:10352800041BF9D1286AFFF7C9F9182392E60B2B77
:103538007FF4F8AD002C3FF4F5AD2378182B7FF419
:10354800F1AD62781421636A901E4242424101FB48
:103558000233B6F801201B691A806278636A941EE8
:103568006242624101FB02335A69D6F803301360A4
:10357800D6F807305360286AFFF7A0F917231FE72A
:10358800112B7FF4CFAD002C3FF4CCAD2378192B51
:103598007FF4C8AD6278636A911E4A424A41142199
:1035A80001FB0232731C1136D26953F8041BB34273
:1035B80042F8041BF9D1286AFFF780F91A2349E673
:1035C800082B7FF4AFAD002C3FF4ACAD23781A2B59
:1035D8007FF4A8AD636A71781A7861F347021A70AC
:1035E800D6F80220636AC3F80120F288A3F8052000
:1035F800C1E70B78012B7FF495AD4B6804F11402F9
:1036080003F1180153F8040B8B4242F8040BF9D16B
:10361800E27994F82F10C2F3C003C1F3C0010B4044
:10362800E17863F30001237DE170002B7FF465AD41
:10363800217803291ED1607DA17888423FF6C6AD66
:1036480063F3471202212046E271627A217163F323
:1036580007126272A27A63F30712A272FFF7A0F848
:10366800082329708DF824302B6A0D9307238DF8D1
:10367800283074E5E378DB077FF547AED9E50B78AA
:10368800052B7FF44FAD07228DF82430036AADF87F
:1036980028209DF830200D9322F001028B688DF8C8
:1036A80030200B9362681A6022899A80A27A9A71F4
:1036B8000423237004E50B78052B7FF433AD8DF8D4
:1036C80024300C22036AD1E901010D930AAB83E887
:1036D80003004123ADF828309DF8303023F0010372
:1036E8008DF830300A70BA68A369013203F14001DD
:1036F80053F8040B8B4242F8040BF9D1002109A8B6
:10370800FFF76CF8E378012262F34503E37023784E
:10371800052B09D1A37D934201D80723A0E5032BEC
:1037280040F03481082395E50F2393E50B78072BA8
:103738007FF4F8AC0B79002B7FF4DFAC8B68E36384
:10374800E3E5102104F1600014F078F9636BF3B934
:10375800A37D012B06D807232B70AD4BC4E90D338D
:103768000326B2E406232B700423C7E50B78022B4B
:103778007FF4D8AC0B79002B7FF4BFACA37D022B70
:1037880007D18B68002B3FF4CDAC6363A363072399
:1037980016E6032BFBD16178A379012994F82E2032
:1037A8001EBF194613460A46012A0DD1BA68002AD7
:1037B8003FF4B8AC6263E278D60707D5012B05D190
:1037C800FB68002BE2D1ADE4914AF3E7904BDDE7CB
:1037D800026A08230D92E2788DF82430D00709D5C3
:1037E8006278A37D022A01D1012B0CD9032B0CBFCF
:1037F800092308232B7011238DF82830394609A88E
:10380800FEF7ECFFAFE40923F4E70B78052B7FF410
:1038180089AC2278072A04F1600218BF4FF0110C16
:1038280084F800C08DF82430036A8E680D93112344
:1038380035460B96ADF828309DF8303023F001035B
:103848008DF83030032305F8013BE07810F0010FC4
:103858001ED1A36A28460293636A0193231D00932D
:1038680004F12C03616BFFF77AF8236823F07E4399
:1038780003F0FF23B3F5007F7FF422AC28464034E1
:10388800113650F8043BB04244F8043BF9D117E430
:10389800A37D022B05BF636BC0F3440000231B68A4
:1038A80004BF00F1FF30C340284608BF03F00103FE
:1038B800D4E9061708BF43F08003009313463A463D
:1038C800FFF73CFAD1E70B78052B7FF42BAC1122DC
:1038D8008DF82430036AADF828209DF830200D9328
:1038E80022F001028B6804F170018DF83020042267
:1038F8000B9303F8012B04F1600252F8040B8A427F
:1039080043F8040BF9D1002109A8FEF767FF2378D3
:10391800092B01D10A2382E513239BE4E378D90715
:1039280039D5A27D012A24D16378012B04F17003D3
:10393800D4E9061004F1600411D100260A46009467
:1039480001460AA8FFF71FFB0D23002109A88DF8DF
:1039580024302B6A0D93FEF741FFFFF7B6BB0246F2
:1039680000930AA82346FFF70EFB0B2303262B70B0
:10397800EAE7022A0FD1C3F34402132A0BD8013213
:1039880062F34503E3706378012B01D1062361E4F8
:1039980010232370B9E4236823F07E4303F0FF2348
:1039A800B3F1012F3FF490AB0B2309E5E378DA0775
:1039B80004D5A37D012B29D10C23D4E60F2304F1D0
:1039C800700205AE037004F160006378616B012B2F
:1039D8000CD113460246304600F0B8FAA078002110
:1039E800C0F11002304417F013FD47E50346304696
:1039F80000F0ACFA2046FEF7D3FEEFE70B78022B77
:103A08007FF490AB0B79002B7FF477AB0D23D7E4D1
:103A1800A2450E00637804F17006D4F828C004F1BA
:103A28006008012B216AE26B04F150090CBF404683
:103A38003046CDF808C008BF3346D4F824C018BFB4
:103A48004346CDE9000C4846FFF79EF96378012B01
:103A580020D1A3780021206AC3F11002184417F07E
:103A6800D7FCA36A32464946039305A8636A0293C2
:103A780004F12D030193636B00934346FFF734FA77
:103A8800102205A904F1400017F0B2FC10B10B2375
:103A9800FFF733BB0E2351E20B78052B7FF442ABC3
:103AA8008DF8243004F1700E036A04F1600288680E
:103AB80004F150010D9311230B90ADF828309DF8B7
:103AC800303023F001038DF830300D2300F8013B2E
:103AD80094F801C0D4F83880BCF1010FD4E9093654
:103AE8000FBF04F1050C04F12D0C9946334618BF9D
:103AF8004E46CDE9008CCDE902637346FFF7F4F931
:103B0800002109A8FEF76AFE6378012B09D10F236B
:103B18002B7006238DF824302B6A0D9300230A930B
:103B2800B2E41523FFF796BB0B78032B7FF4FAAAB0
:103B3800E379DB0740F1A381102303700723FFF724
:103B4800DDBB0B78042B7FF4EDAA0B1D04F11402E6
:103B5800183753F8041BBB4242F8041BF9D1636AB7
:103B6800228CA3F80920636AA278DA71636AE17982
:103B78001A7A61F301021A72636A627A1A73636AC3
:103B8800A27A83F82020F9E41223D7E191F8008083
:103B9800B8F1050F7FF4C6AA8B6814260821436183
:103BA8006278636A023A18BF012206FB0233586939
:103BB80013F044FF6278636A04A8023AE16918BF07
:103BC800012206FB02335A6900F0D4F96078626A70
:103BD8000223023804A918BF012006FB002009327D
:103BE800006914F08BFD626AAF4B0DEB06000932D9
:103BF800A169FEF79BFF6278636A0DEB0601023A42
:103C080018BF012206FB0233A278986917F04CFC12
:103C18006278636A0021023AA07818BF012206FB85
:103C28000233C0F110029B69184417F0F1FB11220E
:103C38002B6AADF828209DF830200D9322F0010260
:103C48006B698DF824808DF8302006220B9303F8D9
:103C5800012B6178626A023918BF012106FB012233
:103C6800926902F1100152F8040B8A4243F8040BDE
:103C7800F9D1002109A8FEF7B1FD00236B611323D8
:103C88002B7008238DF824302B6A0D930B23EEE458
:103C98000B78052B7FF446AA8DF82430036A14208C
:103CA80089680D930B230B91ADF8283007230B700F
:103CB8006278636A023A18BF012200FB02331B696B
:103CC8001B88A1F801306278636A023A18BF0122A2
:103CD80000FB02335A691368C1F803305368C1F80E
:103CE800073023781C2B08D11A232B709DF830300D
:103CF80043F001038DF8303080E51723002109A82F
:103D08002B709DF8303023F001038DF83030FEF72A
:103D180065FD25E5152311E10B78052B7FF402AA33
:103D280011228DF82430036A1420ADF828209DF85C
:103D380030200D9322F001028B688DF83020082284
:103D48000B9303F8012B6178626A023918BF0121CD
:103D580000FB0122D26902F1100152F8040B8A42D9
:103D680043F8040BF9D1002109A8FEF737FD162303
:103D78002A6A2B7008230D928DF8243077E40B788B
:103D8800052B7FF4CFA98DF824300822036AADF8FB
:103D9800282009220D938B680B931A706269127898
:103DA800C2F346025A706269D2F80110C3F80210D1
:103DB800B2F80520DA8094E7667804F1040CE37819
:103DC800022E03F001030CBF01210021C3F10703F8
:103DD80018BF012201F1050808BF00221CF80800DD
:103DE80002F1050E18400CF808001CF80E8003EAD2
:103DF80008030CF80E30002840F093801B2626702C
:103E0800002B3CD013F0010808D02244567A26F043
:103E180001065672112203262A7002E09E071BD45F
:103E280001266278022A00D053B921444A7A12F056
:103E3800010818D022F001024A72172200262270C7
:103E48001CF80E2002437FF48FA9002B3FF48CA9A5
:103E58001C232370FFF788B92244567A68F3410679
:103E680056721422D7E712F0020FE9D068F3410224
:103E78004A721922E2E70B78062B7FF453A91B2319
:103E8800FFF79EBA2378012B3FF44CA90C2B3FF483
:103E980049A9204600F092F809238DF824302B6AAE
:103EA8000D93FFF73FB900BFD2450E000A78052AE7
:103EB8001AD1036A8DF824200D938B680221ADF87E
:103EC80028109DF830100B9341F001018DF8301047
:103ED80039461A70027C09A85A70FEF77FFC19232C
:103EE80006462B70FFF740B906230B701923FFF71E
:103EF80067BA01238DF82430036A0D9303238DF8E4
:103F08002830037C8DF82930002303740CB1FE237C
:103F180023709DF82430002B7FF4D2A80126FFF7E8
:103F2800D4B8012E3FF46EAF7AE7012A3FF6EDA927
:103F3800FFF7E1B9012A7FF6DEA909232B700823D0
:103F48008DF824302B6AFFF74CBA00BF7FB50646C0
:103F58000D4618686C46596803C4106823465168B2
:103F6800324603C303236946284617F0BAF804B05B
:103F780070BD000030B5154685B0074A044668464E
:103F880002F130033232FEF7D1FD2A466946204657
:103F9800FEF7E0FD05B030BDA2450E0070470000F9
:103FA80010B40446034B0846034A214610BCFEF7EA
:103FB800BDBD00BFD2450E00EF450E004378012B72
:103FC80018BF0C23037070470A4628B1017C19B149
:0C3FD80000F10C01FEF726BC0120704730
:104000002CFFFFFFDBE5B15100AC01005630FFFF94
:1040100073000000809698006136314D876B1DDF7C
:0C4020001F3C5920E0BA42AE2B1B28BD0B
:10402C002DFA0E005DFD0E00BDFE0E00E9FE0E0029
:10403C002BFF0E0069FF0E00A3FF0E00D3FF0E0036
:10404C0009000F0069000F000DFB0E0059630E00F4
:10405C005D890E00BD890E00E5890E00358A0E00C3
:10406C00C98A0E003D8C0E00318D0E00698D0E003C
:10407C00CD900E00DD910E002D920E0099920E0047
:10408C00B9920E0091980E00C5980E00C9970E00BB
:10409C002D980E0001990E0091990E0085A60E0028
:1040AC0069A70E000DAC0E0039AD0E00E5AD0E008B
:1040BC0051AE0E00BFAE0E005D630E00D9AF0E0008
:1040CC0063B00E005D630E005D630E005D630E0059
:1040DC005D630E0065930E00DD930E005D630E00B4
:1040EC00ED940E005D630E00E5920E0021930E0020
:1040FC0045930E005D630E005D630E005D630E0064
:10410C005D630E005D630E005D630E005D630E006B
:10411C005D630E005D630E0059630E0059630E0063
:10412C0059630E001DBD0E00A9BD0E00C9BD0E00C9
:10413C00EBBD0E006DBF0E0015BE0E0021BE0E00B5
:10414C0065BE0E0089BE0E0051BF0E0097BF0E005B
:10415C0059630E00BBD50E00D3D50E00D9D50E0079
:10416C0015D60E0045D60E0019D70E0099D70E00A5
:10417C00B5D70E0015D80E0065D90E0031DB0E0038
:10418C005DDC0E0079DC0E0031DF0E0059630E0091
:10419C0059630E005D630E005D630E005D630E00DF
:1041AC005D630E005D630E00FF0102001001100143
:1041BC003A0200001A020C01020000001100030078
:1041CC000300070008000330030003000D0000008B
:1041DC0005000F000F0003000F00060007000F0082
:1041EC0004000500070007000C0003000F00070087
:1041FC000F0003000300030003000300030003008F
:10420C00030003000300030003000300030003008A
:10421C00030003000300030003000300030003007A
:10422C00030003000300030003000300030003006A
:10423C00030003000300030003000300030003005A
:10424C00030003000300030003000300030003004A
:10425C00030003000300030003000300030003003A
:10426C00030003000300030003000300030003002A
:10427C00030003000300030003000300030003001A
:10428C00030003000300030003000300030003000A
:10429C0003000300030003000300030003000300FA
:1042AC0003000300030003000300030003000300EA
:1042BC0003000300030003000300030003000300DA
:1042CC0003000300030003000300030003000300CA
:1042DC00030003000300040003000300023000117C
:1042EC000003030708080D0004050600F403002072
:1042FC000200000B800000200200000B00040020D4
:10430C000200000C660400200200000B6604002072
:10431C000100000C640400200100000C0406080AD3
:10432C000C0E10121416181C1E20222426282A2CBF
:10433C002E30323436383A3C3E40424446484A4CA1
:10434C004E021A5000000000280000001800000067
:10435C0000000000F0230000241300000000000007
:10436C004006000040060000000098086B030000A7
:10437C0000000000F02300002413000000000000E7
:10438C0048A3000014A00000000040060C0300002D
:10439C00C7010F00AD840E00E5B30E00C5DC0E00A6
:1043AC0039F40E0000000000FFFFFFFF0000FFFFCC
:1043BC00000003000230030003000F000F00040094
:1043CC000D001300030003000800030003000300AA
:1043DC0003000600070003000300030003000300B2
:1043EC000300030007300300030003000700030071
:1043FC000300030003000300030003000300030099
:10440C000300030003000300030003000300030088
:10441C000700030003000300030003000300030074
:10442C0003000300110003000D0003000300030050
:10443C00030003000430030003000900DDF30E0049
:10444C00C5F70E00DDF30E00DDF30E00DDF30E00FC
:10445C00DDF30E001BD50E00FBD40E006BD50E0049
:10446C008DBC0E004FBC0E006FBC0E005D030F0028
:10447C00C7020F00A5A00E008BD50E000000000097
:10448C00AFD50E00DBBC0E000000000000000000E9
:10449C00000000000000000025A10E000000002814
:1044AC0000000020010001000001010000010001DA
:1044BC00000001000100000001000B0002000A00D6
:1044CC00050009000A000800140007001E00060081
:1044DC00320005004B00040064000300960002004B
:1044EC00FA000100F4010000F401FA0096006400E7
:1044FC004B0032001E0014000A00050002000100EF
:10450C000C0802170D010102090901010602091824
:10451C001803010109090303050302012302022404
:10452C000910040405050B0B040B2B1B1B159A9A85
:10453C001C021D16130501490D150508061B1B0F42
:10454C000A060601010000FEFEFEFEFEFEFEFEFE59
:10455C00FEFEFEFEFEFEFEFE16FEFEFEFEFEFEFE57
:10456C00FEFEFEFE1F1FFEFE26FEFEFEFEFEFEFEF5
:10457C00FEFEFEFEFEFEFEFEFEFEFE3E3EFEFEFECF
:10458C00FE3B3B00A201B003BE05EE024806A209A9
:10459C00C405F40B24120000000000000000000011
:1045AC000000000000008700000000000000000078
:1045BC00000000000000BE83605ADB0B376038A59A
:1045CC00F5AA9183886C00000300000001300E00F6
:1045DC00892B0E00000000010206030405000000F8
:1045EC000700000100FB349B5F800000800010007E
:1045FC000000000000000000858A0F00858A0F0073
:10460C00858A0F00858A0F00858A0F00858A0F0026
:10461C00858A0F00858A0F00858A0F00658E0F0032
:10462C00858A0F00858A0F00858A0F00B9900F00CC
:10463C00C7900F00D5900F002D950F0075920F00AD
:10464C00858A0F00858A0F00858A0F00AD920F00B6
:10465C00F9920F00858A0F00858A0F00858A0F005A
:10466C00858A0F001D930F0039930F0059930F008B
:10467C00858A0F00858A0F00E5900F00F9900F00D6
:10468C0007910F0015910F00F7910F00D1910F00BA
:10469C0039910F0075910F0085910F00B18A0F00B1
:1046AC0029910F00858A0F00858A0F00858A0F00DB
:1046BC00858A0F0061950F001103030303030303A5
:1046CC0003030303030703030303030303030F079A
:1046DC00030303030303030303050F0000E510505A
:1046EC0004E5105000100200DC0504008A000000F4
:1046FC00E500000085000000D70000004E0000001F
:10470C001C000000FA00F401960064004B0032001B
:10471C001E0014000A000500020001000000000049
:10472C00000001010101010101010101010102026D
:10473C000202020203030404050506060707080823
:10474C00090A0B0C0D0E0F10111213141516171855
:10475C00191A1B0010010000D200000030010000EB
:10476C00D800000001000000E4000000020000007E
:10477C00EA00000002000000EC0000000300000052
:10478C00EE00000004000000F00000000500000036
:10479C00F200000006000000F4000000070000001A
:1047AC00F600000008000000F700000009000000FF
:1047BC00F80000000A000000F90000000B000000E7
:1047CC00FA0000000D000000FB0000000F000000CC
:1047DC00FC00000011000000FD00000013000000B0
:1047EC00FE00000015000000FF0000001800000093
:1047FC00000000001B000000010000001F00000072
:10480C00020000002300000003000000280000004C
:10481C00040000002D000000050000003300000023
:10482C000600000039000000070000003F000000F7
:10483C000800000000100200FA0000006E5246351D
:10484C007800FFFFFFFF1F006136314D876B1DDFC6
:10485C001F3C5920E0BA42AE2B1B28BD002F6A65C5
:10486C006E6B696E735F776F726B73706163652FBC
:10487C00776F726B73706163652F6E5F646F776EA9
:10488C0073747265616D5F746573745F626C655F80
:10489C007364635F6D61737465722F647261676FAB
:1048AC006F6E2F6D70736C2F6C6962732F736368EE
:1048BC0065642F7372632F73636865645F68616CE2
:1048CC005F74696D65725F677274632E63000000BC
:1048DC0008B5074801F030F8054800F02BF801F056
:1048EC0047FC01F03DFB00F071FB012008BD00BF4F
:1048FC00600E002008B500F0FBFF01F00FFC01F08A
:10490C0053FBBDE8084000F079BB01F06DBC01F031
:10491C0041B801F04BB801F0C7BC01F085BC01F007
:10492C0093BC01F093BC01F097BC01F0B3BC01F057
:10493C006DBC00BF024B186000221A719A60704760
:10494C00680E0020F7B51E4C2379012BDAB204D087
:10495C00022A2ED0012003B0F0BD0DF10701A06892
:10496C0000F058FBA5686B7DDB071CD5AB7F042BD7
:10497C0019D001F049F80646A8B101F04BF82B69A3
:10498C00D5E900279A18B36847F100070A332CBF02
:10499C00012500251B1845EB01059342BD4102D3AF
:1049AC00A06800F003FC0023A36023719DF80700AE
:1049BC00D1E70DF10701A06800F036FBF3E700BF6B
:1049CC00680E002010B5837FABB9034601F11802C5
:1049DC0051F8044B914243F8044BF9D101248477EC
:1049EC00064B1A790AB1FFDFFEE798601C7100F0E4
:1049FC00C3FF204610BD0020FCE700BF680E00205E
:104A0C0073B505460C4600F0FFFF0646AB7F012B45
:104A1C001AD021462B4604F1180251F8040B91428E
:104A2C0043F8040BF9D101230DF107012846AB77AC
:104A3C0000F0F0FA16B1012002B070BD034B042156
:104A4C00186816F02FFAF6E70020F5E7680E00203C
:104A5C00024B0621186816F025BA00BF680E00201C
:104A6C0010B5EFF3108472B600F0CEFF08B9FFDF7B
:104A7C00FEE7FFF7EDFF04B962B610BD10B50446B2
:104A8C00074B1A790AB1FFDFFEE7986002221A7110
:104A9C0000F072FFA07FB0FA80F0400910BD00BF9B
:104AAC00680E002038B50446A37F03B938BDA37F38
:104ABC00032B02D0A37F042B0CD1EFF3108572B61D
:104ACC00204600F0CCFA05B962B6A37F002BEDD0DE
:104ADC00FFDFFEE7A37F012B01D1FFDFFEE716F01E
:104AEC00FDFBE1E710B50446FFF7C8FF20B92046EF
:104AFC00BDE81040FFF7D6BF10BD13B50DF107018F
:104B0C0000F092FA044600F07FFF08B9FFDFFEE7E1
:104B1C00204602B010BDF8B504460F4600F07AFFEF
:104B2C000025A4682418384641F100062246334675
:104B3C0000F0E4FAA04271EB060309D3001B6FF0FE
:104B4C00010361EB0601834275EB010102D3F8BD51
:104B5C002846FCE74FF0FF30F9E72DE9F041856876
:104B6C001746002306464A190C465B4113B1002038
:104B7C00BDE8F08100F04EFF2A18384641F10003E1
:104B8C0014EB020843F1000500F0B8FA4045A941C6
:104B9C00EDD301F029FB00F061FAB3680120377501
:104BAC002344B360E4E7837F012B01D100F078BB91
:104BBC0000207047D0E9000170470069704700F091
:104BCC0029BF8068704708B500F01EFF08B9FFDFE9
:104BDC00FEE7007D08BDF8B5036904460BB1FFDFA5
:104BEC00FEE701F001FB05460E4615F099FD70B38A
:104BFC006435D4E9003246F10001AB4272EB01009E
:104C0C0001D22B460A46C4E90032EFF3108572B686
:104C1C0000F0FAFE064698B100F0FCFEB3680B33C8
:104C2C002CBF012200221B18D4E9006042EB0101C9
:104C3C00B34271EB00023CBF33460146C4E900317C
:104C4C0005B962B62046BDE8F84000F0C7BA15F0C9
:104C5C0087FD074600F0F0FEB84238BF384696355F
:104C6C0046F100024319D4E9000142F100028342EB
:104C7C0072EB0105C7D20346C4E700BF042300F161
:104C8C00180283770023037643768376C376044B2E
:104C9C00196811B91A605A60704759680A60FAE7C6
:104CAC00740E00202DE9F843174E00240746884661
:104CBC00B368204633B928B3144B1878BDE8F843D1
:104CCC0016F092BA53E9061553F8082CD3F8009055
:104CDC00521845F10005BA4275EB080510D24CB1DB
:104CEC00226812682260A3F11800FFF7C7FF0120A9
:104CFC004B46DFE7B268002AF5D01268B260F2E7E3
:104D0C001C46F5E7BDE8F883740E0020B8000020BF
:104D1C0000232DE9F04713600646324B98680028B3
:104D2C005DD0A0F1180550E9063CB3427CEB0104C0
:104D3C000AD250F8084CE3184CF1000C9E4271EB6F
:104D4C000C043CBF33468C4650F8104C00270A34F8
:104D5C0047F10000E3184CEB000C2846D5F81890EE
:104D6C00B9F1000F3BD059E906E89E4578EB0C04ED
:104D7C0035D290F814A019F8044CA24526D08CBF5B
:104D8C0001240024F4B105F11803B645136078EB47
:104D9C0001030CD259F8083C13EB0E0348F1000840
:104DAC009E429E4671EB08033CBFB646884659F8B6
:104DBC00103CA9F118000A3347F1000C13EB0E0359
:104DCC0048EB0C0CAD6955B1183DC7E7B9F8044078
:104DDC00B0F81CA0A4EB0A04C4F3C034D2E7BDE8BD
:104DEC00F08700BF740E00202DE9F04F85B0828350
:104DFC004F4A04460091D2F808C094F81580D0E9C7
:104E0C000030BCF1000F40D0ACF11801002708F0C5
:104E1C000109D1E90026934270EB06056ED3B9F176
:104E2C00000F2CD0277D0D7DAF4228D38D68AD1897
:104E3C0046F1000615F10A0A46F1000E534570EBD7
:104E4C000E0219D22269D21840F1000792457EEB6E
:104E5C00070B01D252467746AA42B7410FD22046E1
:104E6C000024FFF70BFF334B187816F0BDF9009BAD
:104E7C001C7005B0BDE8F08F1A460746ECE78A694E
:104E8C000F4622B1A2F11801C3E76246674618F03B
:104E9C00010F38D0A168C91840F1000B019192B3F1
:104EAC00019DD2E9001615F10A0E4BF10005714572
:104EBC0076EB050527D294F814E0157DAE4519D391
:104ECC0095686D1846F1000615F10A0946F10008BF
:104EDC004B4570EB080113D22169C91840F1000E43
:104EEC00894578EB0E0A01D24946C646A9427EEBAB
:104EFC00060EB4D3926932B1183AD1E70A46C6E726
:104F0C0019468646F2E704F118035FB1BA69A2614B
:104F1C00BB6103AA00200021FFF7FAFE231A5C42B2
:104F2C005C41A4E7024AC4F818C09360F1E700BFE3
:104F3C00740E0020B8000020F8B5234C0023E36069
:104F4C00EFF3108272B621686360E160236002B9EE
:104F5C0062B60026E36803B9F8BD9A79A3F118008C
:104F6C00032A07D11A6801219E7153F80C3CE260A8
:104F7C009847EFE7196851B1A1F1180307460022D1
:104F8C009D7F042D07D09B7F032B02D1A2B9E1603A
:104F9C0015E0FFDFFEE7B0F81CC09D8BA5EB0C0500
:104FAC002D049D6944BF07F118021846002DEDD061
:104FBC001F46A5F11803E3E713681B681360C36869
:104FCC0002218677D4E700BF740E002010B5084C80
:104FDC002378FF2B01D0FFDFFEE7064816F0E0F840
:104FEC00054B002220709A601A605A601A8210BD1C
:104FFC00B8000020454F0E00740E002010B5044C74
:10500C002078FF2803D016F0E3F8FF23237010BD9F
:10501C00B8000020034B1A8A10B4541C1C8210BC1C
:10502C00E2E600BF740E002037B504460D4601AA17
:10503C0000210020FFF76CFE231A04F118015842DE
:10504C0058412870044815F051FF10B1002301207D
:10505C00A37703B030BD00BF7C0E002022E638B52C
:10506C00114B044600F118011A68B2B11A680020FD
:10507C009AB191420ED108B1A56905601D68A9428B
:10508C0004BF12681A605A68914200D1586000231C
:10509C00A37707E010461268EAE7044815F026FFEC
:1050AC000028F4D138BD00BF740E0020800E002003
:1050BC0037B505460C46FFF7F5FD01AA28462146F3
:1050CC00FFF726FE28B100F11803034A536103B021
:1050DC0030BD0346F9E700BF740E002010B5064C36
:1050EC00616904F1080015F001FF18B16069002333
:1050FC001838636110BD00BF740E00209C46144B21
:10510C00F0B59D68FDB115F8043C183D834218D8E4
:10511C0012F10A04D5E900364CF10001A34276EBFA
:10512C0001070BD22F69FF1846F10006A7428E41EA
:10513C0007D3B4F10A0041F1FF31F0BD1C463146F2
:10514C00F7E7AD69DEE74FF0FF300146F5E700BF4A
:10515C00740E0020837F022B1AD1437D13F00203BF
:10516C0002D000238377704703220376437683763D
:10517C00C3760C4B827700F11802196829B91A60B2
:10518C005A60094B187816F02FB859680A60F7E77F
:10519C00837F012B04D0837F042B01D0FFDFFEE73C
:1051AC00704700BF740E0020B800002010B500F14D
:1051BC0018010446074815F099FE08B9FFDFFEE711
:1051CC002046FFF75BFD044BBDE81040187816F045
:1051DC000BB800BF7C0E0020B80000202DE9F74F63
:1051EC00D0F810E0BEF1000F01D0FFDFFEE78368BE
:1051FC0090F814800193D0E90014EFF3108972B683
:10520C00264BB3F810C09B686BB1019D183B0A3557
:10521C00D3E900264EF1000A6D1844EB0A0A9542B8
:10522C007AEB060707D2B9F1000F35D0C0E90014AC
:10523C0003B0BDE8F08F8A4276EB04070CD31F69EC
:10524C00BF1846F1000BAF427BEB0A0B34BF0125B4
:10525C00002575B99B69D7E712F10A0A9D6846F1DA
:10526C00000715EB0A0547F10007A94274EB070785
:10527C00ECE71D7DA84509D0ECD912F10A019D6817
:10528C0046F10004691844F10004E3E79D8BA5EB9B
:10529C000C052D04DED5F0E762B6C7E7740E0020CE
:1052AC00F7B50C460DF107010646878BFFF7BCFEE0
:1052BC0008B9FFDFFEE70FCC35460FC594E80300B5
:1052CC003A4685E8030030460DF10701FFF78CFDE7
:1052DC00012003B0F0BD00BF034B187800F0FD00B7
:1052EC00431E584258417047900E0020034B58689B
:1052FC0008B9FFDFFEE7C36806211847900E0020AF
:10530C0038B5FFF7EBFE002580B1094CC4E9010567
:10531C00E56000F05DFE6068022329468377C36870
:10532C009847D4E90401FFF799FE012038BD00BF6E
:10533C00900E0020024B0521986915F0B3BD00BFFB
:10534C00900E0020042970B505460FD004D8023900
:10535C00012911D9FFDFFEE70529FBD1FFF7BCFFBF
:10536C0010B1164C667F4EB1FFDFFEE7FFF7EAFA8D
:10537C0010B1124B01221A77002070BD00F034FFDF
:10538C00A36AC01A236A9842ACBF206223623046DB
:10539C00236B98470123226A6377D4E90431323BAB
:1053AC0041F1FF31981841EBE271054AC4E90A0159
:1053BC0000F0F0FE034B02202B60DEE7900E002085
:1053CC0041530E0011570E002DE9F74F2C4C81461E
:1053DC00637F666B002B3FD1FFF77EFF804618B1D1
:1053EC00238F9E4238BF1E4600F0FEFE83190F46E7
:1053FC00054641F100011846CDE90013FFF758FEB0
:10540C0068B3019B0099D0E900AB534571EB0B02DB
:10541C0005D2BAEB0605534659466BF100072846F0
:10542C00184AC4E9043100233946C4E90A572362F7
:10543C0000F0B0FE5046594600F008FEB8F1000FDF
:10544C001CD0218F104B114A8E4218BF1346C9F83D
:10545C00003003B0BDE8F08F4FF00008C4E7637F65
:10546C0033B12378023B012B02D8236B01209847E0
:10547C000023637700F0EBFD054BE8E7034BE6E711
:10548C00900E002041530E0065550E00A1540E00E5
:10549C003D550E00042938B5044628D004D80239ED
:1054AC00012927D9FFDFFEE70529FBD100F0D0FD4C
:1054BC0015F02AF900F098FE194A936AC51A136A76
:1054CC009D42B8BF1D461562FFF706FFD2E90431B5
:1054DC00C8B1507FB8B9108F181A61F10001C2E938
:1054EC000A01104A00F056FE0F4B236009E0FFF74B
:1054FC0029FA08B9002038BD00F066FE2046FFF7F7
:10550C0063FF0220F7E7323B41F1FF31581941EBC1
:10551C00E571C2E90A01034A00F03CFE034BE4E7E3
:10552C00900E002041530E0051530E0011570E00E7
:10553C00032910B5044603D8012906D8FFDFFEE77E
:10554C000429FBD1FFF7FEF908B9002010BD204655
:10555C00FFF73AFF0220F9E7042938B505460FD0CA
:10556C0004D8023901290ED9FFDFFEE70529FBD14A
:10557C00FFF7B2FE10B1164C607F68B1FFDFFEE79B
:10558C00FFF7E0F908B9002038BD00F01DFE2846F1
:10559C00FFF71AFF0220F7E7236B98470123637785
:1055AC0000F022FEA36A626BC01A236A9842ACBF59
:1055BC0020622362D4E90431981A064A61F1000191
:1055CC00C4E90A0100F0E6FD034B2B60E2E700BFE3
:1055DC00900E002041530E00A1540E002DE9F0470F
:1055EC0080460F469146404C002B6AD04FF0000A83
:1055FC00D3E90065C4F820A0864275EB01033CBFDB
:10560C000D46064629463046C4E9046500F01EFDE9
:10561C00238FB6EB080803F1640365EB07074345DA
:10562C005346BB410DDA637F43B12378023B012B18
:10563C0002D8236B0120984700236377FFF74CFEB9
:10564C008246636B03F5E173984577F1000719DA2D
:10565C00BAF1000F0DD0208F244A301A65F10001E9
:10566C00C4E90A0100F096FD214BC9F80030BDE8F1
:10567C00F0871E4A30462946C4E90A6500F08AFDC7
:10568C001C4BF2E700F0E5FC15F044F8208F636B3F
:10569C00BAF1000F0BD0984209D9301A134A65F1B0
:1056AC000001C4E90A0100F075FD134BDDE7F01AA7
:1056BC000E4A65F10001C4E90A0100F06BFD0F4BC5
:1056CC00D3E7637F33B12378023B012B02D8236BE2
:1056DC00012098470023637700F0BBFC15F01AF803
:1056EC0000F0B5FC064BC0E7900E002041530E00B5
:1056FC0099570E0035580E0065550E00A1540E003A
:10570C003D550E00023970B50446032938D8DFE840
:10571C0001F00502070E1B4B00221A77002012E045
:10572C00FFF710F90028F9D0164B0122F5E700F02D
:10573C0091FCB0B1134B1B7F33B9FFF7E1FD18B1EE
:10574C00114B2360022070BD00F04EFD06460D4645
:10575C00FFF7AEFC2246034629463046FFF73EFFD4
:10576C00F0E700200021FFF7A3FC08B1FFF71EFDB6
:10577C0000F06FFC14F0CEFF2046FFF725FEE1E7AA
:10578C00FFDFFEE7900E002089580E00042970B54B
:10579C0005460FD004D8023901290ED9FFDFFEE7E8
:1057AC000529FBD1FFF798FD10B11C4C667FB6B1F3
:1057BC00FFDFFEE7FFF7C6F808B9002070BD00F068
:1057CC0003FD00F011FD06460C46FFF771FC2A465E
:1057DC00034621463046FFF701FF0220EEE700F0BA
:1057EC0003FDA36AC01A236A9842ACBF20622362ED
:1057FC003046236B98470123226A6377D4E904313E
:10580C00323B41F1FF31981841EBE271044AC4E993
:10581C000A0100F0BFFC034B2B60DEE7900E00206A
:10582C0041530E0035580E00042970B504460ED0B5
:10583C0004D8023901290DD9FFDFFEE70529FBD178
:10584C00FFF75EFD50B10C4B2360022003E0FFF725
:10585C0079F808B9002070BD00F0B6FC00F0C4FC6B
:10586C0006460D46FFF724FC2246034629463046E1
:10587C00FFF7B4FEE9E700BF89580E0002392DE9A5
:10588C00F041064604292ED8DFE801F003090B2D60
:10589C000E00164A1378003B18BF012353770020E3
:1058AC001FE0FFF74FF8FAE7DFF8408000F0A6FBA7
:1058BC0000F09AFC0C460546FFF7FAFB0746D8F8B1
:1058CC000400FFF747FC002300222846C8F80430E8
:1058DC0000232146C8E904233B463246FFF77EFEEF
:1058EC000220BDE8F081FFDFFEE700BF900E002034
:1058FC0010B5EFF3108472B60B4B0C4A9B691B6806
:10590C0093420DD00A4A93420AD00A4A934207D0D6
:10591C0000F09FFB14F0FEFE00F099FB00F054FC2D
:10592C0004B962B610BD00BF900E00203D550E00AC
:10593C0065550E00A1540E00054B10B5054C0360C7
:10594C000023A061237014F00BFF3230606310BD94
:10595C003D550E00900E0020054B9A691168054AC2
:10596C00914201D0FFDFFEE732305863704700BF31
:10597C00900E00203D550E0010B5EFF3108472B65A
:10598C00034B0421986915F08DFA04B962B610BD69
:10599C00900E0020034B5B680BB9FFDFFEE7024A59
:1059AC0000F0F8BB900E0020F9520E00034B5B6820
:1059BC000BB9FFDFFEE700F007BC00BF900E002024
:1059CC00034B5A680AB9FFDFFEE79860704700BFC7
:1059DC00900E0020034B5A680AB9FFDFFEE7D8602F
:1059EC00704700BF900E0020024BDB680BB9FFDF45
:1059FC00FEE71847900E0020024B9B680BB9FFDFA7
:105A0C00FEE71847900E0020014B5868704700BF06
:105A1C00900E0020034B5A680AB9FFDFFEE7D3E96A
:105A2C0004017047900E0020024B323118701A633B
:105A3C0019877047900E002008B5FFF74DFC08B190
:105A4C00014B188F08BD00BF900E002010B5032825
:105A5C000AD8DFE800F00C020C02A1F1320341F28B
:105A6C004A549BB2A34203D96FF0150003E0002106
:105A7C00FFF7DAFF002010BD0028ADBF00F1604039
:105A8C0000F00F00044B00F56140B4BF185C90F8B7
:105A9C0000034009704700BF14ED00E0044B1B6885
:105AAC000BB9FFDFFEE71A6A0421586A104700BFE2
:105ABC00D00E0020044B1B680BB9FFDFFEE71A6AFF
:105ACC000521586A104700BFD00E0020FFF778BFA1
:105ADC00FFF780BF024B00221A609A80704700BF0C
:105AEC00D00E0020FEF711BF7047054B1A680AB99B
:105AFC00FFDFFEE70349D16000221A60FEF7A8BF62
:105B0C00D00E0020B35D0E0008B100207047034B8F
:105B1C001A79002AF9D0187101207047D00E002094
:105B2C0010B5094B1A7902F0FF045AB9FF221A7109
:105B3C002022C3E90A01214603F1080015F066FC96
:105B4C00204610BD2024FBE7D00E0020C0E908122F
:105B5C002022002115F05ABC08B100207047044BDC
:105B6C0018790028F9D00120C3E90A12704700BF48
:105B7C00D00E002030B587B00C4605461822002107
:105B8C00684615F043FC23788BBBD4E9043162687A
:105B9C000A3B207A02F10A0241F1FF318DF8140020
:105BAC000292627A1848CDE90031C2F34003C2F385
:105BBC008002039069465B0082F0010243F001030E
:105BCC0043EA82039DF8152022F0070213438DF857
:105BDC0015300E4B5868C0F3080088B11038FFF729
:105BEC004BFF68B92846FEF70BFF07B030BDFEF738
:105BFC008CFE226910F10A03049241F10001C6E700
:105C0C002846FEF7DFFEF0E7B35D0E0000ED00E086
:105C1C0028B90448037913B10830FFF7ABBF002053
:105C2C00704700BFD00E002008B50A4B02465868DA
:105C3C00C0F3080040B11038FFF71EFF20B9104622
:105C4C00BDE80840FEF759BF1046BDE80840FEF716
:105C5C0015BF00BF00ED00E0024B282202FB003014
:105C6C00FFF7E2BFD80E002010B5037886B00446CB
:105C7C000BB1FFDFFEE705934168CDE90333D0E9B3
:105C8C000432007A0A310A3B8DF81400684642F15E
:105C9C00FF320291CDE90032FEF79DFF009B019A85
:105CAC0001200A3342F10002C4E9043206B010BDEF
:105CBC00FFDFFEE70A46084908B50346086808B93D
:105CCC00FFDFFEE71946FEF748FF18B1FEF721FE8D
:105CDC00002008BD0220FCE7D00E0020194B70B547
:105CEC000446586886B0C0F3080010B9002006B00E
:105CFC0070BD1038FFF7C0FE03460028F6D1C3F381
:105D0C0007230E7A4D6823F003030A35CDE904000E
:105D1C00D1E904208DF814600A3A0B4E029540F13B
:105D2C00FF300396CDE900204A7A20466946C2F33B
:105D3C004002520042F0010213438DF81530FEF779
:105D4C0032FFD4E700ED00E0B35D0E0028B9044843
:105D5C00037913B10830FFF7C1BF0020704700BFB3
:105D6C00D00E0020FEF72FBF024B01461868FEF73D
:105D7C00D2BE00BFD00E0020FEF794BE08B1FFDFEC
:105D8C00FEE7044803790BB9FFDFFEE70830FEF7A6
:105D9C0089BE00BFD00E002008B5FEF710FF0A30F8
:105DAC0041F1000108BD2DE9F04104460E46C9B988
:105DBC000F4F3B680BB1FFDFFEE738600D48FFF774
:105DCC00FFFD0D48FFF706FEFFF7E6FF637D054676
:105DDC005B0707D5FEF79FFD2D1A3D6300F016FA01
:105DEC000028FBD0236A3146606ABDE8F0411847B1
:105DFC00D00E0020A95A0E00C15A0E0010B5044650
:105E0C00FFF7CAFF201841F10001FEF780FD0120C9
:105E1C0010BD014B186B7047D00E0020FEF77FBDF4
:105E2C007047FEF77ABDFEF77CBDFEF77CBD70B502
:105E3C000B7886B00BB1FFDFFEE705930E7A4D6849
:105E4C008DF814600A350E4E049203960295D1E932
:105E5C0004340A3B44F1FF34CDE900344B7AC3F3EC
:105E6C008001C3F3400381F001015B0043EA81032D
:105E7C0069468DF81530FEF7A5FD06B070BD00BF64
:105E8C00B35D0E007FB5FEF740FD002305930A4B72
:105E9C00039340F21E2302934FF0FF33CDE9000130
:105EAC00694606480493FEF7ABFD08B9FFDFFEE731
:105EBC0007B05DF804FB00BFCD5E0E00080F00209C
:105ECC0038B5062935D8DFE801F0043631343434DE
:105EDC00170014F02DFCFEF772FE044616480D4612
:105EEC00FEF76FFE1E3C45F1FF312018BDE838402F
:105EFC0041F10001FEF70BBD14F012FC38B10E4B52
:105F0C00002283F82020BDE83840FEF7A1BD14F034
:105F1C0011FC08B914F00CFC00224FF40071064877
:105F2C00FEF71BFE0028D6D1FFDFFEE7BDE83840A8
:105F3C00A8E7FFDFFEE738BD080F002010B5074CBF
:105F4C0094F8203043B914F0EBFB28B9012384F802
:105F5C002030BDE8104095E710BD00BF080F0020B1
:105F6C004FF000430D4A0E480021C2F88030A2F5D4
:105F7C008022C2F88031012302F57832C2F8043550
:105F8C00A2F58022C2F804352022064BD3F818352E
:105F9C0080F82010436215F039BA00BF00400C5055
:105FAC00080F002000E004500023084AC2F880309B
:105FBC00A2F58022C2F88031012302F57832C2F8B2
:105FCC000835A2F58022C2F80835704700400C5005
:105FDC0008B513F045F9074AD2F8583743F00103D6
:105FEC00C2F858370122044BC3F81825BDE8084005
:105FFC00A4E700BF00200E5000E0045008B513F0D9
:10600C0031F90E4AD2F8583723F00103C2F8583749
:10601C000B4B5A6A0B4BC3F8182503F55C33012262
:10602C005A604FF0FF32C3F808232022064BC3F806
:10603C009021BDE8084000F0C7B800BF00200E500A
:10604C00080F002000E0045000E100E070477047AA
:10605C007047704708B514F063FBA0B90C4BD3F82C
:10606C0000313BB90B4A936A0133312B936209D946
:10607C00FFDFFEE714F05EFB08B1FFDFFEE714F074
:10608C0055FB012008BD034B00229A62F9E700BFC3
:10609C0000E01050080F002050E700BF40F2025102
:1060AC00014808B514F0DAFE69480E0018482022A1
:1060BC0008B5C0F89020BFF34F8FBFF36F8F154B0F
:1060CC00C0F89021D3F8041521F00301C3F804158E
:1060DC00D3F8081541F00301C3F8081592FAA2F1A0
:1060EC00B1FA81F1092904DD40F29F310A4814F01C
:1060FC00B5FEC3F8101501215960D9604FF000416D
:10610C00C3F880104FF0FF31C3F80813026108BDCB
:10611C0000E100E00050085069480E00124B4FF4AB
:10612C00E062C3F838230022C3F8AC25C3F8BC25C1
:10613C00C3F8CC25C3F82021C3F82421C3F82821A7
:10614C0020220A4BC3F89C21C3F89C20BFF34F8F2D
:10615C00BFF36F8FC3F89020BFF34F8FBFF36F8FD8
:10616C00C3F89021704700BF00200E5000E100E002
:10617C0008B5FFF7D3FF054B4FF4A062C3F83423E7
:10618C002022034BC3F89C21DA6108BD00200E507D
:10619C0000E100E00A4B10B51C680CB1FFDFFEE714
:1061AC00B1F5801F1A6001D3FFF778FF054B012270
:1061BC00C3F8A005C3F8A415C3F8AC2510BD00BFE7
:1061CC00380F002000200E50054A136833B100230D
:1061DC000449C1F8AC35C1F820311360704700BFD9
:1061EC00380F002000200E5030B54FF0FF30064C19
:1061FC006FF04041D4E90023904271EB0305F9D3D1
:10620C001046C3F3130130BD40270E5008B5FFF7FD
:10621C00EBFF044BD3E90223904299412CBF0120A0
:10622C00002008BD380F002010B5029C241841F145
:10623C000001A01A61EB0301B0F1004F71F10001F4
:10624C0001DBFFDFFEE710BDFFF7CEBF014B18618E
:10625C00704700BF380F002008B50C4B1B690BB9F9
:10626C00FFDFFEE7EFF3108272B6B1F5801F01D3AA
:10627C00FFF714FF064BC3F8C005C3F8C415012182
:10628C00C3F8CC1502B962B608BD00BF380F0020A8
:10629C0000200E5008B5FFF709FF024B01221A60CF
:1062AC0008BD00BF0050085010B5FFF7FFFE0F4CA3
:1062BC000023C4F8BC35C4F82431FFF795FF0A302D
:1062CC0041F10001B1F5801F01D1FFF7E7FE4FF05E
:1062DC000043C4F8B005C4F8B415C4F8A4310123C4
:1062EC00C4F8BC35024BC3E9020110BD00200E50AE
:1062FC00380F0020134BD3F8342312F4A06F10B5D1
:10630C0001D1FFDFFEE7D3F820215AB100220E495C
:10631C00C3F8AC25C3F820210B680BB9FFDFFEE7EF
:10632C000A609847074BD3F828214AB10022C3F8DA
:10633C00CC25C3F82821044BBDE810401B69184735
:10634C0010BD00BF00200E50380F002001207047F8
:10635C000620704709F03EBA09F05EBA38B50E4B0C
:10636C000C461B7873B9602801D06A2810D16038AC
:10637C000A4B53F82050D4E90223D4E90001A84772
:10638C00206038BDA0F16003612BF0D90120F7E744
:10639C0043F20100F4E700BF800600202C400E0001
:1063AC00054B984205D3054B98422CBF0020012089
:1063BC0070470020704700BF00200E0000CC0F007B
:1063CC0008B50246FFF7ECFF0B4B19680B4B9942D3
:1063DC000AD178B90A4B9A4205D30A4B1868824203
:1063EC002CBF0020012008BD20B9054B9A42FAD3DE
:1063FC000548F4E70120F6E7640D0020BEBAFECA9A
:10640C008000002084000020800000200A4B1A68C5
:10641C000A4B9A420BD10A4B1B6883420AD8094B90
:10642C0098422CBF0020012080F001007047064BE1
:10643C009842F4D20020F7E7640D0020BEBAFECAE1
:10644C0084000020000004208000002008B1FFF729
:10645C00DDBF704708B1FFF7B3BF7047FFF77ABFD6
:10646C00FFF77ABFFFF77ABF704738B504460D4681
:10647C0000F02AFB29462046BDE8384001F086BBD7
:10648C0038B510220D460021044614F0BFFF172327
:10649C00258163810A23A37338BD4FF6FF730B80EC
:1064AC000146022013F02EBB704700897047837B96
:1064BC0003F00303022B1BBF8389002005200B80F4
:1064CC007047837B9B0748BF81817047837B5B0749
:1064DC0000D509B14089704717207047837B61F361
:1064EC00C30383737047008820F4007020F0010010
:1064FC00C004C00C003818BF01207047827B0346D3
:10650C0010B512F001040CD14181FFF7ECFF10B172
:10651C0042F004029A739A7B42F001029A7320466D
:10652C0010BD0524FBE700002DE9F3410446077874
:10653C001546012062680E4600FA07F74FF6FF7108
:10654C00138827F408578B42BFB200F01F811FB18C
:10655C0041F6FE510B4247D13B431380002D00F016
:10656C00178100232B702278511E0C2900F2FE801B
:10657C00DFE811F00D003D004800650081008C0043
:10658C0096006500A800AC00C700E100EA00636853
:10659C009A7B900740F1F4802289162A40F2EE8013
:1065AC0019899142C0F0EA809989162902D9914241
:1065BC0040F0E48029780220A5F8012060F3050161
:1065CC002970032131809A819A7B22F002029A73FE
:1065DC00002F00F0D9806F4A0220618813F056FA20
:1065EC006368227800209A7002B0BDE8F081042321
:1065FC002B702389A5F801306389A5F80330052396
:10660C003380E5E7B4F81080338808F107081FFAE7
:10661C0088F84345C0F0B2800623E81D2B7023890F
:10662C00228AA5F8013063896169A5F80330A38932
:10663C00A5F8053014F036FFA6F80080C8E7082A44
:10664C000DF1070104F10C0014BF082310232B706B
:10665C002389A5F801306389A5F803300523EA18CE
:10666C00338012F01DF9002840F088809DF8073027
:10667C0032881344C4E70A232B702389A5F8013010
:10668C0003233380636822899A80A1E70C232B7043
:10669C002389A5F801306389A5F803300523F0E7B9
:1066AC0022893388520002F101081FFA88F8434509
:1066BC0064D3B8F1040F61D928460E2300F8013BCE
:1066CC00E168B7E72B7843F040032B70628933887D
:1066DC0002F103081FFA88F843454FD32B78122197
:1066EC00E81C61F30503E1682B702389A5F80130E0
:1066FC0014F0D8FEA6F800802B7859063FF568AF49
:10670C00C0E7A289338802F105081FFA88F84345CF
:10671C0034D32B781621681D61F3050321692B7086
:10672C002389A5F801306389A5F8033014F0BAFE6B
:10673C00A6F80080A6E72B78182262F305032B70CD
:10674C00237A6B7002235BE763681A88920417D56F
:10675C00DA8823899A4215D11E232B700123626893
:10676C003380138823F40053138031E703203380E4
:10677C006268138823EA0703138035E70420F7E7E0
:10678C000520F5E70620F3E73846F1E709202BE76B
:10679C00042029E780C3C9012DE9F04392F8009049
:1067AC0085B007461E4609F03F080C46002900F04C
:1067BC00878118F0010F40D0B8F1190F94BF002158
:1067CC0001213046FFF782FEA042C0F07981358866
:1067DC004FF6FF739D4200F0738119F0400340F0B7
:1067EC0071815FEAD91940F06D81ADF80030B8F1D4
:1067FC001F0F00F26381DFE818F05F0122006101D6
:10680C0098006101A7006101C8006101DB00610112
:10681C00EB006101F7006101FB0061010401610102
:10682C000E01610161016101170161012F0161011B
:10683C003E016101370161015F010121C1E7052CB6
:10684C0040F03A8102238DF80030B3788DF8043093
:10685C009378D17843EA0123ADF8063013798DF89B
:10686C000130537803F03F03023B162B00F22481D6
:10687C00DFE813F0170022013D0022014000220145
:10688C004300220146002201490022014C00220152
:10689C004F00220152002201220122015500220147
:1068AC00580015F0020F00F007816946384605F0D4
:1068BC0023F9044668B9B8F11B0F0AD0B8F11D0FC3
:1068CC0007D03946022013F01DF9338803F4005326
:1068DC003380B37B5A0706D53046FFF704FE10B958
:1068EC0060F38203B373204605B0BDE8F08315F066
:1068FC00040FD8E715F0080FD5E715F0100FD2E705
:10690C0015F0200FCFE715F0400FCCE715F0800FF6
:10691C00C9E715F4807FC6E715F4806FC3E715F45B
:10692C00006FC0E715F4805FBDE7AB0740F1C48092
:10693C00032C40F0C18053788DF80040927843EAE4
:10694C000223ADF80430B0E76D0740F1B580052C9B
:10695C0040F2B2805178012915D0022940F0AC8068
:10696C001023023C042002338DF80410A4B28DF8DD
:10697C000000B4FBF3F14B43ADF806109C4240F021
:10698C009B80023212E00223EBE7280740F194804F
:10699C00013C0521A3B2C4F38D048DF80010B3EBB8
:1069AC00840FADF8044040F08780013202927CE7FE
:1069BC00E90640F18180012C7ED006238DF8003051
:1069CC005378012B78D9023C8DF80430A4B2D0E76F
:1069DC00AB0671D50723013C8DF80030B388ADF8B8
:1069EC000640ADF80430E0E76D0665D50823F2E704
:1069FC00280661D50923013C8DF80030ADF8044020
:106A0C00D3E7E90558D5012C56D00A238DF8003070
:106A1C005378032BD6E76A054ED5012C4CD10B23AA
:106A2C008DF80030B3888CE72B0545D5042C43D961
:106A3C000C23053C05328DF80030B388ADF80430DA
:106A4C0012F8023C12F8011CADF8084043EA01238D
:106A5C000392ADF8063028E7ED042DD5012C2BD18F
:106A6C000D238DF8003020E7A80425D453789178B5
:106A7C0043EA0123F380B37B19071DD5022C1BD9E4
:106A8C00B8F11B0FA4F1030402F103020DBF0E2396
:106A9C000F2345F400558DF800301CBF8DF80030E5
:106AAC00358012F8023C12F8011CADF8064043EA9E
:106ABC000123ADF8043079E707240AE7082408E736
:106ACC00072410E708240EE702281FB50B4606D151
:106ADC000122694698B28DF8002005F00DF805B03A
:106AEC005DF804FB0B8810B5048F9C420CD9406BED
:106AFC00C418C05A40B1A0880633C0F30E0003443A
:106B0C0000200B80146010BD0A20FCE71FB54B6BF6
:106B1C000C464BB10B2201938DF800200A8F69466D
:106B2C00ADF8082005F0CEFC00236363A3F5803399
:106B3C00A36304B010BD00002DE9F04F91464A6BE1
:106B4C0087B006460D460AB9002487E0012BFBD11D
:106B5C000023474FADF80E3005AA0DF10E01284663
:106B6C00FFF7C0FF024608B10A244AE0059BB3F9BF
:106B7C0004100029F0DB1B88304610991FFA83FAA9
:106B8C000B8004AB5146CDE900234FF40073FBF7A7
:106B9C00CBFC0446A8BBBDF80E308346ADF81230D2
:106BAC00DDF81480B8F800309A4515D1B8F80420F7
:106BBC0093B2120410D4B8F8022043F48043514627
:106BCC003046CDE900BB01F0CEF8044668B9B8F800
:106BDC0004303B43A8F8043005AA0DF112012846F5
:106BEC00FFF780FF0028DBD00A24059B00223046EB
:106BFC001988BDF81030CDE9002201F0B4F80A2C48
:106C0C00AAD00023ADF80E3005AA0DF10E012846CE
:106C1C00FFF768FF30B30A2C20D1B9F1000F93D0E5
:106C2C000023ADF8123005AA0DF112012846FFF72A
:106C3C0059FF002888D1059C109A23881380A388BB
:106C4C00628834F8061BCDE90040304601F08BF821
:106C5C0004460028E7D00A283FF476AF204607B058
:106C6C00BDE8F08F059A9388C3F30E039380CBE7AE
:106C7C000080FFFF2DE9FF470D46064617469DF89D
:106C8C003810002228469846DDE90C9A01F055F898
:106C9C00832804461DD104230DF1060229463046F3
:106CAC008DF800300023ADF80450FBF749FDC7F315
:106CBC00090369463046ADF80A80ADF8083005F096
:106CCC0001FC022801D030B18124204604B0BDE87B
:106CDC00F0870028F9D143463A4629463046CDE99B
:106CEC000C9A04B0BDE8F047FBF71EBC2DE9FF473A
:106CFC000D46064690469DF83410012228461F4644
:106D0C00DDF830909DF838A001F017F88328044680
:106D1C001ED100230DF10602294630468DF800A045
:106D2C00ADF80450FBF70CFDC7F30D036946304674
:106D3C00ADF80880ADF80A30CDF80C9005F0C2FB28
:106D4C00022801D030B18124204604B0BDE8F08780
:106D5C000028F9D117F4004F4FF00004F4D13B4652
:106D6C00424629463046CDE90C9404B0BDE8F047C4
:106D7C0000F0F9BFF8B5566B15464EB305386B8F5E
:106D8C0082B24FF6FF7083421BBFF018063300240B
:106D9C00848818BFE4182B8F18BFA4B2A71807F16A
:106DAC000800984216D8B1F8013030190531335328
:106DBC00063031F8023C20F8022C20F8043C14F088
:106DCC0071FB6B6B00206C873B449871D871F8BDDC
:106DDC008320FCE70920FAE72DE9F04F082B91B04E
:106DEC008A469946BDF868B01E9E04900792DDE96C
:106DFC001B1859D10B880922022743F010030B8072
:106E0C003D463270022498F8003006930A2388F825
:106E1C0000300AF1180318460893FBF751FC022FB7
:106E2C000CBFFD23FB230593C7F1FF039BB2099312
:106E3C000BAB0498DDE9072100F0EEFE00285AD1D7
:106E4C001D9B1B881B1BAB4255DBB9F1100F06D1E8
:106E5C00022C1FBFA31CBDF82C205B1BF252BDF8EB
:106E6C002E101D9B31531B88059ADB1B1B1B9BB2E1
:106E7C009A42099AB8BF1346594534D9079A0498CF
:106E8C0002920DF12A0201923A1932440092002228
:106E9C00FFF7F0FE88F8000000283ED0832839D197
:106EAC00022011B0BDE8F08FDAF81C309878012878
:106EBC0015D11A88A2F5205292B2012A0FD84FF49C
:106ECC0020529871987204279A8042F601021A8116
:106EDC0000229A7311220B8843F020038FE71023B2
:106EEC0088F8003009E00AD1069A42B1134688F8B6
:106EFC000020AAF818B0022C24D10020D1E70DF103
:106F0C002A02049801923A19324400920022FBF7AB
:106F1C000BFBBFE7BDF82EB0EBE7BDF82A20022C27
:106F2C0007EB0205EDB203D175702C44A4B27FE7D8
:106F3C007378AB4205D1BDF838109142F5D0FF2DD6
:106F4C00F3D01D46B9F1100F01BFA31CBDF82C20C6
:106F5C005B1BF2521D9B1C800023C1E70B460021DA
:106F6C0010B518461446442214F050FA00F10802E9
:106F7C008487C2614FF6FF7242871722C2870A22AA
:106F8C0080F8422010BD4FF6FF730B8001460320A2
:106F9C0012F0B8BD10B50C46FFF7B8FD0023E36244
:106FAC00236310BD808F704790F84230024613F077
:106FBC0002000ABF538806200B80704790F84230BD
:106FCC009B0748BFA0F84010704790F842305B0711
:106FDC0000D509B1C08F70471720704790F8423028
:106FEC0061F3C30380F8423070470388C3F3C000D9
:106FFC0013F0F00F18BF40F00200DA0548BF40F064
:10700C000400990548BF40F008005A0548BF40F0FD
:10701C0010001B0548BF40F02000704770B590F879
:10702C004250044615F0010611D1C187FFF7DDFF70
:10703C0010F03E0F1CBF45F0040584F8425094F844
:10704C00423043F0010384F84230304670BD0626CE
:10705C00FBE72DE9F04F924695B01A7881461D4614
:10706C00209C02F03F0B0E46DDE91E87C9B11BF0D8
:10707C00010F19D0BBF1190F94BF0021012120463B
:10708C00FFF7A3FFB0420CD312F040030ED1BBF1BB
:10709C001E0F0ED0218801F47F6111B9B8F80010D1
:1070AC0039B94FF0040ACCE00121E8E7BBF1120F2B
:1070BC00F7D1D209F5D10022ABF102018DF82620CF
:1070CC00ADF82820ADF82A201C2900F2F582DFE863
:1070DC0011F01D00F3023A00F302C000F302340178
:1070EC00F3026E01F302AB01F302D802F302340196
:1070FC00F302D601F302F302F3022002F3028A0236
:10710C00F302F302F302F302F302DA0294F84230D0
:10711C00980701D5032E01D0042397E0B5F8013070
:10712C004FF400620FA948466380ADF82A208DF811
:10713C003C60ADF8403005F0C5F98246BAF1000F5D
:10714C0040F0578167E0052EE6D1B5F801309AB2D0
:10715C002383ADF82830B5F8033099B26383002A45
:10716C0073D08A4271D80023A37223814FF6FF7328
:10717C00238404F1180318460693FBF7A1FA0FAB0E
:10718C00524604F1180148463E7000F045FD08B126
:10719C000A235BE09DF842300226012B1ABF022322
:1071AC004FF0100B4FF0020B7B7000220DF12701FA
:1071BC0010A811F075FB50BB9DF827305B4526D10C
:1071CC00BBF1020FB8F800300CBF032211229B1B3D
:1071DC009A421CDABDF83E300BAA0DF1270110A81B
:1071EC00BB53023611F05CFB9DF82720B6B20BA9FD
:1071FC000792B81914F056F9079A0FAB0699324456
:10720C00484696B2524600F007FD0028CDD0022E1B
:10721C00BED0A8F800609DF8263053B101223A7018
:10722C002A783B7105237A70BDF828207A80A8F85B
:10723C00003023884FF0000ABDF82A2023EA02030D
:10724C002380504615B0BDE8F08F01238DF8263011
:10725C00E1E7062E0B927FF65FAFB5F8013099B2DD
:10726C002383ADF82830B5F8033098B2638301233B
:10727C000029EBD08142E9D8A3726B79A979A2736A
:10728C0043EA01232381E369987801280ED11988F8
:10729C00A1F5205189B2012908D84FF420519871D9
:1072AC009872998042F601019A731981EB1D073E81
:1072BC00636204F118032684012618460693FBF733
:1072CC00FFF90723B3463B700023ADF83E300FABFC
:1072DC0052460699484600F09FFC28B9B8F80020A1
:1072EC000BF104039A4210D2BBF1010F3FF450AFE3
:1072FC00E3699B79012B04BFBDF83C30ADF82E300F
:10730C000B9BBB51A8F800B085E7BBF1010F0BD06C
:10731C00E2699279012A04BFBDF83C20ADF82E2019
:10732C000B9ABA510436B6B2BDF83E201FFA83FB55
:10733C00ADF82C20ADF82E20C9E7072E02D0152E63
:10734C007FF4EAAEB5F801309AB22383ADF8283059
:10735C00B5F8033099B263830123002A3FF476AF6A
:10736C008A423FF673AF701FA3720023E269691D56
:10737C00C0B22381A37311F08FFA00287FF408AFF9
:10738C004FF6FF735246214623840DF126030293D8
:10739C000DF12A03CDE90387CDE900035B4648468E
:1073AC00FFF71AFD238B8246ADF82830C6E6032E74
:1073BC007FF4B2AEB5F8011040230FAA48462183E2
:1073CC00ADF82A30B8F8003001927A1C013BADF8C8
:1073DC002810009289B29BB20022CDF808A0FFF7CA
:1073EC0049FC8DF82600B8B183287FF414AF4FF018
:1073FC00020ABDF82A2023881343238093057FF5C6
:10740C0020AF228F4FF6FE739A427FF41AAF4FF0E3
:10741C00030AE562268614E70B233B70BDF83C306B
:10742C000133A8F80030F6E6052E7FF475AE802304
:10743C00ADF82A30B5F80130238399B2B5F80300C2
:10744C00ADF8283082B22084B2F5007F01D9072331
:10745C00FCE642F47C420FA82284B8F8003001907C
:10746C00781C013BCDF808A0009048469BB2FFF772
:10747C0001FC8DF826000028B6D10D23CDE7022E95
:10748C0004D8002B3FF448AE0023CAE7002BB5F814
:10749C0001B0A6F1030305F103000CBF062205227F
:1074AC009BB200901FFA8BF148460793ADF828B0B9
:1074BC000691CDE901A20022FFF718FC2A78079B60
:1074CC0012F0400F8DF826000DD0238813F4807F26
:1074DC004FF0000304D0228B06998A4208BF6362E6
:1074EC008DF826309DE7A0F183012384EB1C4FF42B
:1074FC0080724842A4F818B063624FF013034841FD
:10750C00ADF82A203B7001234FEA400AA8F800305E
:10751C0014E6042E7FF600AEB5F801B04FF6FE73FC
:10752C00228F1FFA8BF1ADF828B00AB19A4226D1FE
:10753C000A222387731F48466FEA4343CDE901A211
:10754C006FEA53436A1D9BB20092B5F80320FFF714
:10755C00CDFB4FF4007383288DF82600ADF82A304C
:10756C000FD1224629463046FFF704FC8DF8260041
:10757C0010B183287FF44FAEA4F818B037E7072278
:10758C00D8E738BB224629463046FFF7F3FB8DF887
:10759C00260000287FF43FAE608FD4F834C0B8F8D2
:1075AC0000E00CEB00018A88531D9BB29E45C0F095
:1075BC0089803CF80060063131F8040CA8F80030E2
:1075CC001723A7F80300781D3B70A7F8016013F090
:1075DC0069FF20E6228F4FF6FE739A427FF41BAEB2
:1075EC000023238717E6022E69D195F801B0BBF171
:1075FC00010F64D80AAB00222146484600935B4633
:10760C00FFF79AFA8DF8420038B9BBF1010F20D080
:10761C00218F4FF6FF7291421BD0228FCAB14FF4CB
:10762C008062ADF82A200AAB21460122484600931D
:10763C005B46FFF781FA06468DF826002146484640
:10764C00FFF764FA002E7FF4E6AD19233B7001239B
:10765C00E7E608220FA948468DF840B08DF83C208B
:10766C0000228DF8432004F02DFF4FF48062022895
:10767C008246ADF82A203FF47FAF00287FF4B9AEE4
:10768C00D1E70623E2E523881A0718D5012E16D177
:10769C0009230FA948468DF83C30E388ADF84030FB
:1076AC0004F010FF49468246032012F02BFA0823FF
:1076BC00ADF82A30002329E7002B3FF42DAD4FF015
:1076CC00040A96E64FF0070A93E600002DE9F04F06
:1076DC008FB00D468046CDE906320B7801224FF66D
:1076EC00FF7102FA03F323F47F63DDE9187423F0CE
:1076FC0006039EB223888B42ADF8226000F0DE8137
:10770C0016B11B0700F1DC810022069B3A70B3F81E
:10771C0000902B78ADF82490022B8DF8212009D005
:10772C00032B3DD0012B40D0238823EA06030726E8
:10773C00238053E01B233B7094F842301807F3D599
:10774C000AAAA9F1030340460192FA1C9BB20092CB
:10775C000022A988FAF7E8FE0028E5D1AB88A7F843
:10776C000130BDF828300333ADF824304FF0000958
:10777C00BDF8226026F47F63002B00F08E81AB4AAB
:10778C004146032012F082F92B78237123881E4383
:10779C009DF821302680002B40F0838100261DE0CF
:1077AC001D233B70AB88E380C6E72B7995F805B0B9
:1077BC00022BB4F800A08DF821B061D0032B00F09F
:1077CC005381012BB0D10AF400622B89ADF8222031
:1077DC00002A00F04E81162B37D80526258815F483
:1077EC007F651CD1218ED1B1069B4046079A1B8820
:1077FC00ADF8243009ABCDE901740093E36AFFF7CF
:10780C0028FC012306460AA98DF828304046E36A75
:10781C000B9304F057FE002818BF0646258694F8F3
:10782C0042506B0709D52046FFF7DFFB10F03E00F6
:10783C0004BF60F3820584F84250BDF82430069AE8
:10784C00138030460FB0BDE8F08FA28F9A42C4D39C
:10785C00B4F84020162A01D99A42BED139780322B5
:10786C00A7F8013062F30501ADF824203970A4F8B3
:10787C00403094F8423023F0020384F8423075E72C
:10788C000AF4FE661AF0F00FADF8226042D01AF03E
:10789C00C00F03D02A89238B9A429ED1BBF1000FD3
:1078AC0040F03C81AB7AD9070BD5CDF804B04046FB
:1078BC002B690093EB89AA89298900F054FA0028D6
:1078CC008BD1802E00F04B8100F2FC80202E04D056
:1078DC00402E32D0102E7FF427AF09AB1AF0100FC8
:1078EC000497214603930DF121030CBF4FF01009AF
:1078FC004FF0080902930DF12203079A40460193B9
:10790C002B8900934B46FFF767FA0646002E3FF48F
:10791C002FAF63E7B6F5807F00F0DF807FF604AF12
:10792C00B6F5007F21D0B6F5806F7FF4FDAE238BCA
:10793C00BBF1000F40F00E817BE00AAA09F1FF3386
:10794C00404601927A1C9BB200920022218BFAF7DE
:10795C00EBFD0B238DF821003B70BDF82830013373
:10796C00ADF824304FF00A0902E72B89208B98429E
:10797C007FF433AFD4F834A0BBF1000F38D1AB7A1D
:10798C0003F00103BAF1000F1ED0002B7FF425AFDA
:10799C00608F0AEB00018A88531D9BB29945FFF456
:1079AC00C3AE3AF80060063131F8040CADF824305F
:1079BC001723A7F801603B70A7F80300781D13F09C
:1079CC0071FD4FF01609D3E6002B3FF406AFEA89A0
:1079DC00531D9BB29945FFF4A7AEAE89ADF8243088
:1079EC00172329693B70A7F80100A7F80360E5E7A6
:1079FC00BAF1000FE5D000204FF6FF72ADF826006B
:107A0C00638FBDF82660B34200D038B100210AF86C
:107A1C0003109A448AF801106287D2E70AAA0DF182
:107A2C0026012046FFF75EF83246E9E780C3C9011C
:107A3C00238B04F11802DBB221464046009201224E
:107A4C00FFF77AF88DF8210020B919233B70012338
:107A5C00ADF824300026214640464FF01809FFF7B8
:107A6C0055F853E70526F6E70AF40073ADF8223013
:107A7C000BB9002658E6218F4FF6FE7399421BD1A5
:107A8C00AB684FF6FF7133B1A889636320876187B8
:107A9C001A705A7095E7218793E7238823EA060624
:107AAC0076E6012287F801903A70228B3B71052310
:107ABC007A80ADF8243071E606268FE60826C0E6FB
:107ACC001646BEE6B6F5007F3FF44FAFB6F5806FB5
:107ADC00AED0B6F5807F7FF427AE238B29899942EF
