:020000040015E5
:10D00000E1D81500EF261700F1D81500BB1B17005B
:10D01000F960160077DA1500C31B1700A11B170073
:0CD02000BF1B1700A51B170051231700B1
:10D02C002CFFFFFFDBE5B15100000200F630FFFFE3
:10D03C007300000000000000DE3E0C98DF9899A7FA
:0CD04C00B41AEAF4FB4B6DF8DDE33BE5A1
:10D058001D771600597A1600BD7B1600E97B16006D
:10D068002B7C1600697C1600A37C1600D37C160066
:10D07800057D1600657D1600F57716004DD915005B
:10D088008D061600E906160011071600610716003E
:10D09800F507160031091600D9091600110A1600FD
:10D0A800610D1600610E1600B50E1600270F16004A
:10D0B800490F1600291416005D1416006113160096
:10D0C800C51316009914160021151600F52116002F
:10D0D800DD221600E12716001129160093291600F3
:10D0E800FD2916006B2A160051D91500832B16004E
:10D0F800152C160051D9150051D9150051D9150014
:10D1080051D91500F50F160051D9150051D9150040
:10D118007110160051D91500750F1600B10F1600C1
:10D12800D50F160051D9150051D9150051D9150040
:10D1380051D915004DD915004DD915001D381600C7
:10D14800A5381600C5381600E7381600753A1600D7
:10D15800113916001D3916005D391600813916007F
:10D16800593A16009F3A16004DD915004DD91500A9
:10D178005F511600775116007D511600B9511600FF
:10D18800E9511600D5521600655316008153160052
:10D19800E15316000D551600F556160029581600CD
:10D1A80045581600CD5A16004DD915004DD9150011
:10D1B80051D9150051D9150051D9150051D915006B
:10D1C80051D91500FF010200100110013A020000B8
:10D1D8001A020C01020000001100030003000700FE
:10D1E80008000330030003000D00000005000F00D5
:10D1F8000F0003000F00060007000F0004000500E1
:10D20800070007000C0003000F0007000F000300D1
:10D2180003000300030003000300030003000300EE
:10D2280003000300030003000300030003000300DE
:10D2380003000300030003000300030003000300CE
:10D2480003000300030003000300030003000300BE
:10D2580003000300030003000300030003000300AE
:10D26800030003000300030003000300030003009E
:10D27800030003000300030003000300030003008E
:10D28800030003000300030003000300030003007E
:10D29800030003000300030003000300030003006E
:10D2A800030003000300030003000300030003005E
:10D2B800030003000300030003000300030003004E
:10D2C800030003000300030003000300030003003E
:10D2D800030003000300030003000300030003002E
:10D2E800030003000300030003000300030003001E
:10D2F80003000400030003000230001100030307C9
:10D3080008080D0004050600EC0300200200000BCD
:10D31800000000200200000B580400200200000C4E
:10D328005A0400200200000B5A0400200100000CDF
:10D338005C0400200100000C010000000700000050
:10D348000000000000000000000000000406080AB9
:10D358000C0E10121416181C1E20222426282A2C03
:10D368002E30323436383A3C3E40424446484A4CE5
:10D378004E021A50000040060C0300000000000096
:10D3880048A3000014A000000000000028000000CE
:10D398001800000000000000F02300002413000023
:10D3A8000000000040060000400600000000980849
:10D3B8006B03000000000000F023000024130000AD
:10D3C800000103026E52463578000000C77E160041
:10D3D800AD021600592F1600915816000D7116004F
:10D3E80000000000FFFFFFFF0000FFFF0000030038
:10D3F8000230030003000F000F0004000D001300AB
:10D4080003000300080003000300030003000600F4
:10D4180007000300030003000300030003000300E8
:10D4280007300300030003000700030003000300A4
:10D4380003000300030003000300030003000300CC
:10D4480003000300030003000300030007000300B8
:10D4580003000300030003000300030003000300AC
:10D46800110003000D000300030003000300030084
:10D478000430030003000900B17016009974160007
:10D48800B1701600B1701600B1701600B1701600B8
:10D49800BF5016009F5016000F5116008F37160008
:10D4A800513716007137160059801600CB7F1600C9
:10D4B800F91B16002F5116000000000053511600EA
:10D4C800DD3716000000000000000000000000002A
:10D4D800000000007B1C1600F401FA0096006400AE
:10D4E8004B0032001E0014000A0005000200010073
:10D4F80001000B0002000A00050009000A000800EC
:10D50800140007001E000600320005004B0004004E
:10D518006400030096000200FA000100F401000014
:10D52800020301000C0802170D010102090901019B
:10D53800060209181803010109090303050302017A
:10D54800230202240910040405050B0B040B2B1BF2
:10D558001B151A1A1C021D16130501490D1505087D
:10D56800061B0F020208A201B003BE05EE02480620
:10D57800A209C405F40B24120E021C045A03B406B3
:10D588003006600C000000000000000000000000F1
:10D5980000000000870000000000000000000000FC
:10D5A80000000000BE83605ADB0B376038A5F5AA7F
:10D5B8009183886C00000300390617004D15170089
:10D5C8000000000102060304050000000700000136
:10D5D80000FB349B5F80000080001000000000000A
:10D5E80000000000C51B1700C51B1700C51B17004E
:10D5F800C51B1700C51B1700C51B1700C51B170047
:10D60800C51B1700C51B1700311E1700C51B1700C7
:10D61800C51B17007D2017008B20170099201700C5
:10D62800A923170029221700C51B1700C51B1700BF
:10D63800C51B170061221700AD221700C51B170074
:10D64800C51B1700C51B1700C51B1700D1221700E3
:10D65800ED2217000D231700C51B1700C51B170067
:10D66800A9201700BD201700CB201700D9201700CC
:10D67800AB21170085211700ED201700292117007D
:10D6880039211700F51B1700DD201700C51B1700EF
:10D69800C51B1700C51B1700C51B17001103030383
:10D6A800030303030303030303070303030303033E
:10D6B80003030F07030303030303030303050F0017
:10D6C80000E5105004E510500010020005010000AC
:10D6D8008A000000E5000000850000004800000006
:10D6E8004700000046000000D70000004B00000083
:10D6F8001C000000FA00F401960064004B003200A0
:10D708001E0014000A0005000200010000000000CD
:10D7180000000101010101010101010101010202F1
:10D7280002020202030303030404050506060707B1
:10D7380008090A0B0C0D0E0F1011121314151617E9
:10D7480018191A0010010000D20000003001000072
:10D75800D800000001000000E40000000200000002
:10D76800EA00000003000000EE00000004000000D2
:10D77800F000000005000000F200000006000000B4
:10D78800F400000007000000F60000000800000098
:10D79800F700000009000000F80000000A0000007F
:10D7A800F90000000B000000FA0000000D00000066
:10D7B800FB0000000F000000FC000000110000004A
:10D7C800FD00000013000000FE000000150000002E
:10D7D800FF00000018000000000000001B0000000F
:10D7E800010000001F0000000200000023000000EC
:10D7F8000300000028000000040000002D000000C5
:10D808000500000033000000060000003900000099
:10D81800070000003F0000000800000008090A0691
:10D8280008080102060000100200FA0000000000CB
:10D83800515617005D5617006156170069561700B4
:10D848006D5617002F6A656E6B696E735F776F721E
:10D858006B73706163652F776F726B73706163654B
:10D868002F6E5F646F776E73747265616D5F746538
:10D8780073745F626C655F7364635F6D6173746515
:10D88800722F647261676F6F6E2F6D70736C2F6C7F
:10D898006962732F7363686564756C696E672F734B
:10D8A80072632F72656D5F68616C5F6576656E7413
:10D8B8005F74696D65725F677274632E6300DE3E24
:10D8C8000C98DF9899A7B41AEAF4FB4B6DF8DDE3DE
:08D8D8003BE500000001000027
:10D8E00000B5024880475DF804EB704741241700FB
:10D8F00071460420084202D0EFF3098101E0EFF302
:10D900000881886902380078102813DB20280FDB93
:10D910002C280BDB084A1268084B9A4203D1602876
:10D9200004DB074A1047022008607047054A104789
:10D93000054A1047FFDF0000780B0020BEBAFECA80
:10D9400071DA1500C91B1700BD26170001207047AA
:10D950000620704709F0AEBD09F0CEBD38B50D4BBD
:10D960000C461B783BB9602805D06A2803D043F2E7
:10D970000103236038BD60385C2801D90123F8E732
:10D98000054B53F82050D4E90223D4E90001A847FD
:10D990002060EFE77006002058D01500054B984234
:10D9A00005D3054B98422CBF002001207047002072
:10D9B000704700BF00D0150000D0170008B5024620
:10D9C000FFF7ECFF0B4B19680B4B99420AD178B962
:10D9D0000A4B9A4205D30A4B186882422CBF00209A
:10D9E000012008BD20B9054B9A42FAD30548F4E757
:10D9F0000120F6E7780B0020BEBAFECA0000002026
:10DA000020000020000000200A4B1A680A4B9A42AE
:10DA10000BD10A4B1B6883420AD8094B98422CBF92
:10DA20000020012080F001007047064B9842F4D29C
:10DA30000020F7E7780B0020BEBAFECA20000020C5
:10DA4000000004200000002008B508B1FFF7DCFF4B
:10DA500000F0010008BD08B508B1FFF7AFFF00F006
:10DA6000010008BDFFF776BFFFF776BF00207047C3
:10DA7000FFF774BF7047704738B504460D4600F095
:10DA80004FFB29462046BDE8384001F07FBB38B542
:10DA900010220D460021044617F007FD17232581AB
:10DAA00063810A23A37338BD4FF6FF730B800146D1
:10DAB000022014F0F5BE704700897047837B03F0A5
:10DAC0000303022B1BBF8389002005200B807047B6
:10DAD000837B9B0748BF81817047837B5B0700D5B1
:10DAE00009B14089704717207047837B61F3C303F6
:10DAF00083737047038841F6FE521A4214BF012017
:10DB00000020704770B5857B044615F001060DD1E5
:10DB10004181FFF7EFFFC30744BF45F00405A5733C
:10DB2000A37B43F00103A373304670BD0526FBE7DA
:10DB30002DE9F341044607781546012062680E4638
:10DB400000FA07F74FF6FF71138827F408578B4246
:10DB5000BFB200F01E811FB141F6FE510B424BD106
:10DB60003B431380002D00F0168100232B70227898
:10DB7000511E0C2900F20481DFE811F00D00410074
:10DB80004C00680083008E0098006800AC00B00074
:10DB9000CC00E700F00063689A7B900740F1F380C7
:10DBA0002289162A06D804206268138823EA070708
:10DBB000178021E019899142F5D39989162901D955
:10DBC0009142F0D129780220A5F8012060F30501E7
:10DBD0002970032131809A819A7B6FF341029A73F5
:10DBE000002F00F0D4806D4A0220618814F01CFEE2
:10DBF0006368227800209A7002B0BDE8F0810423A7
:10DC00002B702389A5F801306389A5F8033005231B
:10DC10003380E5E7B4F81080338808F107081FFA6D
:10DC200088F84345BFD30623E81D2B702389228A39
:10DC3000A5F8013063896169A5F80330A389A5F8C7
:10DC4000053017F07FFCA6F80080C9E7082A0DF11F
:10DC5000070104F10C000CBF102308232B7023894B
:10DC6000A5F801306389A5F803300523EA1833804D
:10DC700013F0D4FE002896D19DF807303288134463
:10DC8000C6E70A232B702389A5F8013003233380CC
:10DC9000636822899A80A3E70C232B702389A5F857
:10DCA00001306389A5F803300523F0E72289338822
:10DCB000520002F101081FFA88F84345FFF473AFE0
:10DCC000B8F1040F7FF66FAF28460E2300F8013B32
:10DCD000E168B6E72B7843F040032B706289338804
:10DCE00002F103081FFA88F84345FFF45CAF2B7874
:10DCF0001221E81C61F30503E1682B702389A5F864
:10DD0000013017F01FFC2B78A6F8008059063FF56C
:10DD100067AFBDE7A289338802F105081FFA88F8CA
:10DD20004345FFF440AF2B781621681D61F30503CE
:10DD300021692B702389A5F801306389A5F8033088
:10DD400017F000FCA6F80080A2E72B78182262F3F7
:10DD500005032B70237A6B70022359E763681A88D6
:10DD6000920410D5DA8823899A420ED11E232B7093
:10DD7000012362683380138823F4005313802FE754
:10DD80000320338010E705200EE706200CE7384615
:10DD90000AE7092030E704202EE700BF80C3C9014D
:10DDA0002DE9FF4192F8008007461E460C4608F018
:10DDB0003F08002900F0B08118F0010F40D0B8F101
:10DDC000190F94BF002101213046FFF786FEA042C3
:10DDD000C0F0A28135884FF6FF739D4200F09C8110
:10DDE000137813F0400140F09981DB0940F09681EF
:10DDF000ADF80010B8F11F0F00F28C81DFE818F0C9
:10DE0000240022008A01B3008A01C2008A01E300D3
:10DE10008A01F6008A0108018A0115018A011A01A6
:10DE20008A0124018A0130018A018A018A013B01A9
:10DE30008A0155018A0167018A015F018A01240074
:10DE40000121C1E7052C10D00724B17B4B0708D571
:10DE50003046FFF74FFE10F0010002D160F382015F
:10DE6000B173204604B0BDE8F08102238DF8003084
:10DE7000B3788DF804309378D17843EA0123ADF874
:10DE8000063013798DF80130537803F03F03023BDD
:10DE9000162BD9D801A252F823F000BFF9DE1500E5
:10DEA00049DE15002BDF150049DE150031DF1500B6
:10DEB00049DE150037DF150049DE15003DDF15008E
:10DEC00049DE150043DF150049DE150049DF150066
:10DED00049DE15004FDF150049DE150055DF15003E
:10DEE00049DE150049DE150049DE15005BDF15002F
:10DEF00049DE150061DF150015F0020FA4D0694658
:10DF0000384605F067FB044600289ED1B8F11B0F88
:10DF10009BD0B8F11D0F98D03946022014F0C0FCF8
:10DF2000338803F4005333808FE715F0040FE5E7DF
:10DF300015F0080FE2E715F0100FDFE715F0200FDE
:10DF4000DCE715F0400FD9E715F0800FD6E715F4A0
:10DF5000807FD3E715F4806FD0E715F4006FCDE72D
:10DF600015F4805FCAE7AB077FF56EAF032C7FF433
:10DF70006BAF53788DF80040927843EA0223ADF8F6
:10DF80000430BCE76D077FF55FAF052C7FF65CAF13
:10DF90005178012915D002297FF456AF1023023C95
:10DFA000042002338DF80410A4B28DF80000B4FBF5
:10DFB000F3F14B43ADF806109C427FF445AF0232BB
:10DFC00012E00223EBE728077FF53EAF013C052175
:10DFD000A3B2C4F38D048DF80010B3EB840FADF839
:10DFE00004407FF431AF0132029288E7E9067FF501
:10DFF0002BAF012C3FF428AF06238DF80030537867
:10E00000012B7FF621AF023C8DF80430A4B2CEE79D
:10E01000AB067FF519AF0723013C8DF80030B388BC
:10E02000ADF80640ADF80430DDE76D067FF50CAFC6
:10E030000823F1E728067FF507AF0923013C8DF897
:10E040000030ADF80440CEE7E9057FF5FDAE012CC8
:10E050003FF4FAAE0A238DF800305378032BD0E753
:10E060006A057FF5F1AE012C7FF4EEAE0B238DF83F
:10E070000030B38883E72B057FF5E6AE042C7FF6EE
:10E08000E3AE0C23053C05328DF80030B388ADF8C3
:10E09000043012F8023C12F8011CADF8084043EAC3
:10E0A00001230392ADF8063029E7ED047FF5CCAEED
:10E0B000012C7FF4C9AE0D238DF800301FE7A804B2
:10E0C0003FF5C2AE5378917843EA0123F380B37BE6
:10E0D00019077FF5B9AE022C7FF6B6AEB8F11B0F6B
:10E0E000A4F1030402F103020DBF0E230F2345F434
:10E0F00000558DF800301CBF8DF80030358012F8C7
:10E10000023C12F8011CADF8064043EA0123ADF8C9
:10E11000043069E7082498E60724A2E60824A0E66C
:10E1200002281FB50B4606D10122694698B28DF828
:10E13000002005F04FFA05B05DF804FB0B8810B520
:10E14000048F9C420CD9406BC418C05A40B1A088BF
:10E150000633C0F30E00034400200B80146010BD92
:10E160000A20FCE71FB54B6B0C464BB10C22019308
:10E170008DF800200A8F6946ADF8082005F058FF99
:10E1800000236363A3F58033A36304B010BDF8B527
:10E19000566B154646B305386B8F82B24FF6FF704B
:10E1A00083421BBFF0180633002484881CBF1B1950
:10E1B0009CB22B8FA71807F10800984216D8B1F827
:10E1C0000130301905313353063031F8023C20F864
:10E1D000022C20F8043C17F0B5F96B6B00206C871B
:10E1E0003B449871D871F8BD8320FCE70920FAE719
:10E1F0002DE9F04F17464A6B89B006460D4622B905
:10E200000024204609B0BDE8F08F012BF8D100238F
:10E21000DFF824B1ADF8163007AA0DF11601284633
:10E22000FFF78CFF02460446002850D1079BB3F944
:10E2300004100029F0DB1B884FF0070912993046C3
:10E240001FFA83F80B8006AB4146CDF80090CDE96C
:10E2500001234FF4007301F08BFB0446B8BBBDF8FB
:10E2600016308246ADF81A30079A1388984517D1B0
:10E27000B2F90430002B13DBC3F30D03528841467F
:10E28000304643F48043CDF80090CDE901AA01F077
:10E29000EBFB044668B9079A938843EA0B03938023
:10E2A00007AA0DF11A012846FFF748FF0446002887
:10E2B000DAD0079B0022304619880723CDE90122D6
:10E2C0000093BDF8183001F0CFFB0A2CA4D0002336
:10E2D000ADF8163007AA0DF116012846FFF72EFFFC
:10E2E00020B30A2C8DD1002F8AD000230727ADF848
:10E2F0001A3007AA0DF11A012846FFF71FFF04463E
:10E3000080B90798129A038813808388428830F86E
:10E31000061B0097CDE90104304601F0A5FB044639
:10E320000028E6D00A2C08BF00246AE7079A9388E1
:10E33000C3F30E039380CDE70080FFFF2DE9F04F7C
:10E3400091B0894683461E9DCDE90423BDF868300F
:10E350000793059B082BDDE91B185DD10B8802276D
:10E3600043F010030B8009232B7098F8003009F15B
:10E37000180A3E46022406930A23504688F80030C5
:10E3800001F060FABBB20893C7F1FF039BB2099397
:10E390000BAB049A5146584601F057FA002866D153
:10E3A0001D9B1B881B1BB34261DB059B102B06D1F9
:10E3B000022C1FBFA31CBDF82C209B1BEA52BDF8EA
:10E3C0002E30079A934249D9424A127904922B532C
:10E3D00058461D9B089A1B88BDF82E109B1AC7F142
:10E3E000FF021B1B9BB29A42099AB8BF13460DF15C
:10E3F0002A0202923A192A440192049A00920022B7
:10E4000001F0B6FA88F80000002844D083283FD1F4
:10E41000022011B0BDE8F08FD9F81C30987801289F
:10E4200017D11A88A2F5205292B2012A11D84FF4BE
:10E4300020529871987204279A8042F601021A813C
:10E4400000229A730B8843F020030B8011232B705A
:10E450008BE7102388F800300020DAE7B7D1069A5E
:10E46000002AB4D0079B88F80020A9F81830022CA5
:10E47000F2D0059B0020102B02BFA31CBDF82C205E
:10E480009E1B1D9B08BFAA531C8088F80000C0E794
:10E49000BDF82E30E9E7BDF82A20022C07EB020375
:10E4A000DBB20CD16B700B4A1C441E461268A4B23E
:10E4B0001178052904BFBDF82E10918068E76E78A9
:10E4C0009E42D4D1BDF838109142ECD0FF2EEAD054
:10E4D000CDE700BF080300200B46002110B5184609
:10E4E0001446442216F0E1FF00F108028487C2615D
:10E4F0004FF6FF7242871722C2870A2280F8422015
:10E5000010BD4FF6FF730B800146032014F0C8B90D
:10E5100010B50C46FFF726FE0023E362236310BD0F
:10E52000808F704790F84230024613F002000ABF15
:10E53000538806200B80704790F842309B0748BFF5
:10E54000A0F84010704790F842305B0700D509B141
:10E55000C08F70471720704790F8423061F3C303B3
:10E5600080F8423070470388C3F3C00013F0F00F07
:10E5700018BF40F00200DA0548BF40F004009905DA
:10E5800048BF40F008005A0548BF40F010001B0586
:10E5900048BF40F02000704770B590F842500446E4
:10E5A00015F0010611D1C187FFF7DDFF10F03E0F16
:10E5B0001CBF45F0040584F8425094F8423043F003
:10E5C000010384F84230304670BD0626FBE70000A8
:10E5D0002DE9F04F9BB082461E46884606921A7877
:10E5E000DDE9259502F03F07B9B1FC0717D5192FD2
:10E5F00094BF002101212846FFF7A5FF40450CD319
:10E60000337813F040030CD11E2F0CD0298801F46D
:10E610007F6111B92499098829B90424E0E0012116
:10E62000E9E7122FF9D1D209F7D1DFF8A8B20DAC82
:10E63000069AB91ECBF800408BF8042000228DF812
:10E640002E208DF83420ADF83020ADF832201C2972
:10E6500000F21283DFE811F01D00100333001003F5
:10E66000C80010034001100385011003B30110031B
:10E67000FA02100340011003E1011003100310031C
:10E680002D021003A7021003100310031003100340
:10E69000FC0295F84230980702D5B8F1030F01D07B
:10E6A00004231DE0B6F801304FF400628DF8348089
:10E6B000ADF832206B80ADF8383000246DE0B8F151
:10E6C000050FEDD1B6F801309AB22B83ADF830309A
:10E6D000B6F8033099B26B830AB18A4203D9012399
:10E6E0008DF82E30E9E7002305F1180BAB72584680
:10E6F0002B814FF6FF732B8401F0A4F815AB069A1B
:10E700005946504689F8008001F09FF8044608B148
:10E710000A23E5E79DF85A300227012B0EBF02229B
:10E7200010220223079289F80130079B01330893D6
:10E7300000220DF12F0116A813F070F948BB9DF8C7
:10E740002F30079A934224D1249B089A1B88DB1B05
:10E750009A421EDABDF8563011AA0DF12F0116A803
:10E7600029F80730023713F059F99DF82F20BFB26E
:10E7700011A9099209EB070016F0E4FE099A15ABFE
:10E78000594617445046069ABFB201F05EF8002879
:10E79000CED0022FBCD0249B1F809DF8343023B1F3
:10E7A0000DA9504605F044FC0446BDF83230002C5B
:10E7B00040F069829DF82E2072B1012189F8001085
:10E7C000317889F80420052289F80110BDF830104D
:10E7D000A9F8021024990A802A8822EA03032B80D0
:10E7E00020461BB0BDE8F08FB8F1060F11927FF6FE
:10E7F00057AFB6F8013099B22B83ADF83030B6F888
:10E80000033098B26B83012300293FF469AF814242
:10E810003FF666AFAB727379B179AA7343EA01230D
:10E820002B81EB69987801280ED11988A1F5205128
:10E8300089B2012908D84FF42051987198729980B3
:10E8400042F601019A731981A8F1070305F1180B2B
:10E8500001242B84F31D584627466B6200F0F2FF1B
:10E86000072389F800300023ADF8563015AB069A1F
:10E870005946504600F0E9FF20B9249B1A883B1DF9
:10E880009A4210D2012F3FF443AFEB699B79012BE1
:10E8900004BFBDF85430ADF84630119B49F8043040
:10E8A000249B1F8009E7012F0CD0EA699279012A85
:10E8B00004BFBDF85420ADF84620119A49F8042051
:10E8C0000434A4B2BDF856209FB2ADF84420ADF890
:10E8D0004620CBE708030020B8F1070F03D0B8F1BA
:10E8E000150F7FF4DDAEB6F801309AB22B83ADF888
:10E8F0003030B6F8033099B26B830123002A3FF41D
:10E90000EFAE8A423FF6ECAE0024B8F1050FAB72D1
:10E910002C81AC730BD0A8F10500EA69711DC0B25F
:10E9200013F078F818B10A238DF82E3035E74FF63A
:10E93000FF73069A294650462B84249BCDF81090ED
:10E9400003930DF12E0302930DF132030193002383
:10E9500000933B46FFF7F2FC2B8B0446ADF83030BA
:10E960001BE7B8F1030F7FF49BAE4023B6F801100C
:10E9700015AA5046ADF83230249B29831B88029299
:10E9800009F10102013BADF83010019289B2069AFB
:10E990009BB20092002200F0EBFF04468DF82E009F
:10E9A00020B1832C14BF00240224F6E60B2389F83F
:10E9B0000030BDF854300133249A1380EDE6B8F1ED
:10E9C000050F7FF46DAE8023ADF83230B6F801301C
:10E9D0002B8399B2B6F80300ADF8303082B22884A8
:10E9E000B2F5007F01D907237AE642F47C42249BEA
:10E9F00015A82A841B88029009F10100013B0190AF
:10EA000006989BB20090504600F0B2FF04468DF885
:10EA10002E000028C5D10D23C9E7B8F1020F04D894
:10EA2000002B3FF43DAE00202EE0002BA8F1030B9D
:10EA3000B6F801104FF0000214BF062307231FFA97
:10EA40008BFBF71C8DF834305046069BADF8301028
:10EA500089B200935B46CDE9017201F005F8347884
:10EA600000228DF82E0014F040048DF834200ED0D2
:10EA70002B88D90505D5298BBDF83030994208BFC0
:10EA80006A6200208DF82E00249B188015E64FF452
:10EA900080738328A5F820B0ADF8323008BF022477
:10EAA000BDF830306F622B83132389F800300123C7
:10EAB00082E7B8F1040F7FF6F3ADB6F8013099B2F2
:10EAC000ADF830302B8F1BB14FF6FE72934231D12F
:10EAD0000B238DF834304FF6FE732B87A8F1050316
:10EAE000721D002450466FEA43430192069A6FEA72
:10EAF0005343029400929BB2B6F8032000F0B4FF97
:10EB00004FF4007383288DF82E008DF83440ADF853
:10EB1000323013D12A4631464046FFF738FB8DF894
:10EB20002E0010B183287FF4C8ADBDF83030022428
:10EB30002B8332E608238DF83430CFE758BB2A46C2
:10EB400031464046FFF723FB04468DF82E0000288F
:10EB50007FF4B3AD688F6F6BDDF890C03918BCF8E7
:10EB600000C08A88531D9BB29C45C0F08A80DDF8A6
:10EB700090C006313F5A31F8040CACF8003017232E
:10EB8000A9F8030009F1050089F80030A9F801701F
:10EB900016F0D8FC01E62A8F4FF6FE739A427FF4F6
:10EBA0008CAD2C87F9E5B8F1020F68D17778012F89
:10EBB00065D809220CAB294650468DF83420002236
:10EBC00000933B468DF83870FFF712FB00228DF85A
:10EBD0003A008DF83B2030B9012F06D0298F4FF62F
:10EBE000FF72914201D02A8F7AB92146504605F032
:10EBF0001FFA04460022022C8DF834204FF4806264
:10EC0000ADF8322003D12F83C7E50024F2E7DBF80B
:10EC10000020D27912B18DF82E20BEE50CB18123EF
:10EC200082E60CAB01222946504600933B46FFF793
:10EC3000DFFA29468DF82E005046FFF793FA9DF82B
:10EC40002E40002C7FF439AD19232EE7062347E52B
:10EC50002B881A0713D5B8F1010F10D10A2351469A
:10EC600003208DF83430EB88ADF8383013F018FEFF
:10EC70000823ADF83230D6E6002B3FF411AD042462
:10EC80008BE5072489E52A881A439B052A807FF5AE
:10EC9000A7AD2A8F4FF6FE739A427FF4A1AD0324ED
:10ECA000EE62A5F830809BE52DE9F04F99460126EC
:10ECB0000B7891B00D464FF6FF7106FA03F30792F9
:10ECC000804623F47F63DDE91A7423F0060322886B
:10ECD0009BB28A42ADF8263000F052820BB1130786
:10ECE00066D40022AF4907980DF1300B3A700871D5
:10ECF000C1F800B02978B9F8003002298DF8252034
:10ED0000ADF828308DF8302000F03C82032953D034
:10ED1000012940F0008128796979022823888DF83B
:10ED2000251000F0B480032800F00B82012840F089
:10ED3000F28003F400632A89ADF82630002B00F03E
:10ED4000EA80162A00F284800526258815F47F655E
:10ED50001CD1218ED1B1B9F800304046079AADF8E8
:10ED600028300AABCDE901740093E36AFFF730FC69
:10ED70000123064659468DF830304046E36A0D932C
:10ED800005F056F9002818BF0646258694F842502B
:10ED90006B0709D52046FFF7E6FB10F03E0004BFE5
:10EDA00060F3820584F84250BDF82830A9F800309D
:10EDB000304611B0BDE8F08F1D223A70AA88E2807B
:10EDC00094F84220160740F1A6800BAA033B404668
:10EDD0000292FA1C9BB20192072200920022A9889B
:10EDE00000F0C6FD8246002840F09580AA88A7F86A
:10EDF0000120BDF82C200332ADF82820BDF82610E4
:10EE000021F47F62002A00F0B581674A4146032061
:10EE100013F00AFD2A78BDF82610227122880A43D1
:10EE20009DF83060228026B15946404605F000F931
:10EE300006469DF82520002A87D0012387F801A0E7
:10EE40003B70238B3A717B800523ADF828307CE73B
:10EE5000A38F9342FFF478AFB4F84030162B02D959
:10EE600093427FF471AF39780323A7F801204FF064
:10EE7000000A63F30501ADF8283094F84230397088
:10EE80006FF34103A4F8402084F84230B6E703F45E
:10EE9000FE6213F0F00FADF8262044D1BDF8263005
:10EEA000802B00F083802BD8202B03D0402B56D012
:10EEB000102B30D1052213F0100F049721468DF846
:10EEC00030204FF0000214BF4FF0080A4FF0100A34
:10EED000ADF834200AAA5346404603920DF12502AC
:10EEE00002920DF1260201922A8900920722FFF771
:10EEF00025FA0646002881D007287FF426AF0AE0CD
:10EF0000B3F5007F00F09880B3F5806F00F0F380D8
:10EF1000B3F5807F6ED023880726BDF8262023EA2C
:10EF20000203238011E713F0C00F04D02A89238B3A
:10EF30009A427FF409AF0029B0D1AB7AD807ADD59A
:10EF4000029140462B69019307230093EB89AA891C
:10EF5000298900F089FD00287FF4F6AE9EE79DF830
:10EF60002520E2B90BA9BDF8283040460291791C52
:10EF7000013B019107219BB20091218B00F0F8FC2D
:10EF80000B238DF825003B70BDF82C300133ADF814
:10EF9000283005238DF83030238BADF834304FF016
:10EFA0000A0A2BE70803002080C3C9019DF8253019
:10EFB000EBB90BAABDF82830404602927A1C013BFF
:10EFC000019207229BB20092228C218B00F0D0FC90
:10EFD0000D238DF825003B70BDF82C300133ADF8C2
:10EFE000283005238DF83030238BADF834304FF0C6
:10EFF0000C0A03E7238B298999427FF4A5AE9DF87B
:10F000002530B3B9626A7AB1AA7AD2077FF59CAE8D
:10F01000029340462B69019307230093EB89AA8949
:10F0200000F022FD8DF8250013233B700123ADF87D
:10F0300028304FF0120AE1E62B89208B98427FF4AA
:10F0400083AE9DF82520636B002A38D1AA7A02F09E
:10F050000102F3B1002A7FF477AE668FBDF828C0B5
:10F0600099198A88501D80B28445FFF454AF9E5B85
:10F07000063131F8043CADF828001720A7F80160EC
:10F080003870A7F80330781D16F05CFA4FF0160AB6
:10F09000B4E6002A3FF458AEEA89BDF82810531DA3
:10F0A0009BB29942FFF437AFAE89ADF828301723F1
:10F0B00029693B70A7F80100A7F80360E3E7002B7C
:10F0C000E4D000204FF6FF71ADF82A00628FBDF842
:10F0D0002A60B24200D030B1636B002098541344D0
:10F0E00058706187D2E70DF12A010BAA2046FFF77D
:10F0F00025F83146EAE79DF82560238BD6B904F15F
:10F100001802DBB22146404600920122FFF770F858
:10F110008DF8250020B919233B700123ADF8283064
:10F1200021464046FFF71EF8002E7FF40EAE4FF04A
:10F13000180A63E61BB12B8900262383F0E7052616
:10F14000EEE703F40073ADF82630002B3FF4E3AE96
:10F15000218F4FF6FE73994210D1AB684FF6FF71C5
:10F1600033B1A8896363208761871A705A708DE76D
:10F1700021878BE7228822EA010251E60626E4E590
:10F18000082615E61B223A701AE600BF03281FB5B1
:10F190000B4606D10222694698B28DF8002004F091
:10F1A00047FF05B05DF804FB10B50B78012B03D0C9
:10F1B000022B1ED0812010BD154B1B681A780AB196
:10F1C000052A01D104221A708A889A80CA88DA80B6
:10F1D0000A891A814A895A810D4C216804F028FF56
:10F1E0002368002202281A7010D0904218BF812094
:10F1F000E1E7074B8A881B689A80CA88DA800A8907
:10F200001A814A895A81CA68DA60E5E78320D2E721
:10F2100008030020406B003818BF012070470346E8
:10F22000887810B590B11A7890420CD08878043163
:10F2300068B18242FAD1B3F8014031F8040C84423B
:10F24000F4D1002002E008880028EFD110BD812011
:10F25000FCE7072828D0012A4B7814BF03F00703E6
:10F26000C3F3C203042B04D8DFE803F0051E080F24
:10F27000170081207047901CC0B27047032813D834
:10F28000002814BF0F200520704704280CD802382E
:10F2900001288CBF05200F207047062804D00328C2
:10F2A00014BF05200F2070470020704773B5144627
:10F2B000ADF80410BDF8042003462280227842F005
:10F2C000040222709DF90420002A13DA114A9DF8E5
:10F2D0000410927AA068C1F3001193420CD3FE2B64
:10F2E00004D107324942D20816F0DFF823786FF3D1
:10F2F0000413237002B070BDDE08012203F007037F
:10F3000002FA03F5825D01FA03F322EA05021343D0
:10F310008355EBE710030020064BDA88824206D3C0
:10F3200030B10C221B6850430C3818447047002041
:10F33000704700BF10030020820682B0C3B20BD416
:10F340001B0606D5054B987AC31D414301EBD3013B
:10F3500089B2084602B070470021FAE71003002086
:10F360001388F0B50B8091F90030002B26DA144B8E
:10F370000C789B7A984204D344F0100400200C705F
:10F38000F0BD9568C60800F007070733AE5DDB10D7
:10F390003E4166F304140C701178D27801F0030139
:10F3A00042EA012240F20121B2FBF1F101EB4121DD
:10F3B000521A92B200FB02302844E1E79068DFE77E
:10F3C0001003002010B5044649B1042110F05EFB83
:10F3D00038B120460421BDE8104010F0DDBB0846DE
:10F3E00010BDFF20FCE700002DE9F04F89B0054675
:10F3F000084616461F468946FFF78EFF9DF848B01F
:10F400000446002800F09D800178480740F199806B
:10F41000002D7EDAEDB24FF6FF7A4F4B9B7AAB426E
:10F4200040F29180224603A92846C7F30D08FFF752
:10F4300097FF0022BBF1070F01908DF8102018D024
:10F44000012221465846FFF704FF002876D1227892
:10F4500051060ED50222139BADF814908DF81020A2
:10F46000BDF80C20ADF81860ADF81620ADF81A8084
:10F4700007933A0455D494F800B040F201290BF0F8
:10F48000030294F803B04BEA022BBBFBF9F909EB3A
:10F490004929ABEB09091FFA89F97B0409D5CB454A
:10F4A00007D1A27802F00301227942EA0122B24296
:10F4B0004BD34E4549D806EB0807BFB2B94546D3F2
:10F4C0009DF81020A2BBCB4505D1A278390A27713F
:10F4D00061F30102A270149B0BB1A3F80080139B8F
:10F4E000BBB3019819464246304416F02BF8224629
:10F4F00003A92846FFF734FF9DF80C302846224622
:10F500006FF304138DF80C300399FFF7CFFE002042
:10F5100014E01FFA85FAC9095046FFF753FF054664
:10F520007BE74FF000084FF00109C3464646B4E7B9
:10F5300004A9504604F07AFD0028C4D009B0BDE803
:10F54000F08F0120FAE78720F8E70720F6E70D2083
:10F55000F4E71398F2E700BF10030020CB1C23F060
:10F56000030399422DE9F04107460D462ED1184C70
:10F5700000230E4640F201282160A0802381A27260
:10F58000E380337813F0040001D1BDE8F081E28814
:10F590000132E28013F0200216D103F00302F17869
:10F5A000707841EA022143EA0020B1FBF8F202EB55
:10F5B0004222891A89B2FFF7BFFE238903449BB216
:10F5C0002381FB1A2B44B3600C36DAE78620DCE794
:10F5D00010030020044AD08800EB4003108901305A
:10F5E00000EB830080B27047100300202DE9F04F3C
:10F5F00040F2012489B080461546ADF81C109946AA
:10F600000798BDF848B0B2FBF4F404EB4424141B93
:10F61000A4B22146FFF790FE0146FFF7DBFFDFF8BB
:10F6200000E10C30BEF804C008446045DDE9136A0F
:10F6300072DC9DF81C7007F0A003A02B6ED0BEF802
:10F640000600DEF80030421C92B2AEF80620BAF195
:10F65000000F01D0AAF800204FF00C0A0AFB00FAB4
:10F6600017F02000049003EB0A020ABFBEF808005E
:10F67000966009184FF0FE0001BF89B2AEF808107D
:10F68000ACEB0101C91808BF91600799CDE90523CA
:10F69000FFF70CFE059A069BD570C5F30125147182
:10F6A000240A13F80A1045F0040521F007010D4360
:10F6B00003F80A504FF0070A937864F3010300241B
:10F6C000937098F802305371B8F80030DFF850802A
:10F6D000D380002313733B0627464ABF104B0125F6
:10F6E0009D7A049B002B18BF0026E3B29D4201D8EF
:10F6F00000200EE044F00040CDF800A05B464A46F2
:10F700000134CDE90167B8F80610FFF76DFE002857
:10F71000EBD009B0BDE8F08F8420FAE70620F8E7C7
:10F720001003002038B5FFF755FF0A4A0B309388C5
:10F7300098420DDAD1880C2310684B430131C45C28
:10F74000C518D1806FF38204C4540020287338BDDB
:10F750008420FCE7100300202DE9F0470446FFF762
:10F76000DBFD064670B3184F25464FF0000940F206
:10F770000128B7F806A0AA450AD23B89013C00201F
:10F78000A3EB0909FC803070A7F80890BDE8F0876A
:10F7900028460135FFF7C0FD0278C178ADB202F00E
:10F7A0000303407841EA032142EA0020B1FBF8F369
:10F7B00003EB4323C91A89B2FFF7BEFD81441FFA48
:10F7C00089F9D8E70120E1E71003002010B51446BD
:10F7D00039B1013911800121FFF7F4FDA07000203B
:10F7E00010BD0120FCE70000154B70B50446DD8814
:10F7F00018680C262388AB4220D206FB03F142187E
:10F800001CD0415C490716D55379A078A372D388E0
:10F810002381937803F00301137943EA0123E11C68
:10F82000A381FFF79DFD23882061002001339BB257
:10F830002380E38003E001332380DBE70A2070BDEF
:10F84000100300200123038270472DE9F04FD1F807
:10F8500004904FF6FF7A87B01E46A3F800A04FF041
:10F86000000899F802300F460C8A8DF81230B9F86A
:10F8700000300190ADF810300B8802929C428DF858
:10F88000168038BF1C460C822046FFF745FD054612
:10F8900020B33B8A2A78013352079BB207D4013444
:10F8A00008F101083B82A4B25FFA88F8ECE705F1A1
:10F8B000050B49463B825846FFF7B1FC002851D161
:10F8C0003388534504BF04F1FF3333803388A3EBFF
:10F8D00008087B88A342A6F8008007D2013C4FF0BD
:10F8E0000A083C82404607B0BDE8F08F04A958469C
:10F8F000FFF795FC8046002834D1AA78297902F0D8
:10F900000302B7F808B041EA0223D34503930093FA
:10F910000ED0024629460298FFF79BFC10BB009BC5
:10F920009B451FD11A46A968F86815F0ADFDC8B906
:10F9300074806B790198B371EB882978B3802B7848
:10F94000C90903F00302EB7843EA02237381009BA9
:10F95000B381FFF737FD2A4606F10801FFF700FDE6
:10F960003061BFE701344FF00008A4B28CE700001B
:10F970002DE9F04F89B00646084690461D460F46D1
:10F98000FFF7CAFC9DF848B0DDF84C90044600280B
:10F990005FD001784A075CD5C9093046FFF712FDF0
:10F9A000304B9B7A834256D9224603A9FFF7D8FCF5
:10F9B000BBF1070FC8F3090A01901DD1A278D04509
:10F9C00002F00303227942EA0320024633D1924532
:10F9D00043D8A2EB0A02149B92B2AA4228BF2A463D
:10F9E00003B11A80B9F1000F39D00199484651444A
:10F9F00015F0A8FD00201BE0002221465846FFF725
:10FA000028FCA8B923785B06D8D5012304A9304681
:10FA1000ADF814708DF81030BDF80C30ADF818A0AA
:10FA2000ADF81630ADF81A5004F000FB0028C5D030
:10FA300009B0BDE8F08F237803F00301E37843EACF
:10FA40000123B3F5007FC2DD6B1E8342BFDD0B20B7
:10FA5000EEE70120ECE78720EAE70720E8E74846E1
:10FA6000E6E700BF1003002010B49DF804400194A5
:10FA700010BCFFF7B9BC0000F8B5064608461746AB
:10FA80001D46FFF749FC0446F8B101784B071CD529
:10FA9000C9093046FFF796FC224639460646FFF76D
:10FAA0005FFC5DB1227802F00303E27842EA0322B0
:10FAB000B2F5007F8CBF002201222A70044B987A95
:10FAC000B04294BF87200020F8BD0120FCE700BFB2
:10FAD0001003002073B5064608461D46ADF8042005
:10FAE000FFF71AFC044650B301784B0727D5C90924
:10FAF0003046FFF767FC144B9B7A834222D922469B
:10FB00000199FFF7D3FBFF2D17D0217840F2012296
:10FB100001F00303E17841EA0321B1FBF2F202EBC9
:10FB20004222891A89B215B901F2012189B22378DA
:10FB3000E170090A61F301032370002000E0012055
:10FB400002B070BD8720FBE71003002008B5FFF767
:10FB5000E3FB40B103785B0705D5C3880B8043798D
:10FB600000208B7008BD0120FCE70000052812D89A
:10FB7000DFE800F003131313050BFFDFFEE7084B6C
:10FB80009B78022B09D0FFDFFEE7054B9B78032B08
:10FB900003D0FFDFFEE7FFDFFEE7014B9870704701
:10FBA0001C03002003785B08032B18D8DFE803F060
:10FBB00002050E13002008707047837903F0C0031C
:10FBC000C02B0CD1012300200B707047837903F008
:10FBD000C003402BF5E7837913F0C00FF2D043F256
:10FBE000022070470378032B01D8FFF7DBBF43F2F5
:10FBF0000220704707B500230E488DF80730837C3C
:10FC00003BB90DF107010930FFF7ECFF58B1FFDFF9
:10FC1000FEE7C37C022B03D0032B09D0FFDFFEE7F6
:10FC200003238DF807309DF8070003B05DF804FB4F
:10FC30000123F6E71C03002008B507F047FD08B9CB
:10FC4000FFDFFEE743780133437008BD002307B5AB
:10FC50008DF800306846CDF80130ADF80530074B1F
:10FC60009B7C023B18BF01238DF807300AF0FBFA9A
:10FC700008B1FFDFFEE703B05DF804FB1C030020C2
:10FC800030B5044685B00068A38800906846ADF89A
:10FC900004300AF084FA054698B901200FF07CFE82
:10FCA00078B10AF05BF8236802A88DF80850CDF807
:10FCB0000930A388ADF80D300AF029FD08B1FFDF47
:10FCC000FEE705B030BD0000074808B5437A0A30AA
:10FCD00013F0FE0F05D10AF051FABDE8084007F015
:10FCE000D1BBFFF7CDFFF8E71C03002070B5044639
:10FCF00000680D461646FDF7AEFE08B1102070BD37
:10FD0000A08828B92268A38852B9C3B10920F6E7B0
:10FD1000013823681844FDF79EFE0028F2D0EDE775
:10FD20001F2BF3D80023A288934208DA2068C15C15
:10FD300039B9C15C002940D101339342F9DB00207D
:10FD4000DDE718444278013A142A18D8DFE802F0B7
:10FD50000B1F1F313124242A2A17171717171717BB
:10FD60001717171F24000229D0D18278062A327073
:10FD700021D851071FD52A7842F001022A70226843
:10FD8000D25C01321344A2889342CCDDBEE7CA079D
:10FD900005D50129F3D102E04A1E1007F9D04FF42E
:10FDA0004850ACE729788A0707D441F0020129704E
:10FDB000E5E70620A3E70A20A1E70B209FE770B53F
:10FDC00006460D46FDF7FAFD044660B96B1E072B8B
:10FDD0000BD856F82400FDF7F1FD20B90134E3B249
:10FDE0009D42F6D870BD1020FCE70C20FAE7000019
:10FDF000A1F12003092B43D8DFE803F005070C1617
:10FE00001D222E33383DFFDFFEE70378202B39D14A
:10FE1000FFDFFEE70378233B022B33D91A4B9B7895
:10FE2000052B2FD0FFDFFEE70378222B2AD0232BD0
:10FE300028D8FFDFFEE70378222B23D0FFDFFEE781
:10FE40000378223BDBB2072B04D8B52222FA03F356
:10FE5000DB0717D4FFDFFEE70378252B12D0FFDF87
:10FE6000FEE70378252B0DD0FFDFFEE70378252B77
:10FE700008D0FFDFFEE70378282B03D0FFDFFEE783
:10FE8000FFDFFEE7017070471C03002030B5CA8811
:10FE900085B00D884FF6FF734C888988ADF8003027
:10FEA000ADF806100021ADF80250ADF80440ADF8F1
:10FEB0000820ADF80A10ADF80C1088B19D4204BFBF
:10FEC0000623ADF802304FF6FF739C4204BF0621B3
:10FED000ADF804109A4204BF4FF44863ADF80830FF
:10FEE00068460AF000FA07F0CDFA05B030BD37B524
:10FEF0000C460DF107010546FFF774FE70B9227834
:10FF00009DF8073063F34702234603F8012BD5F829
:10FF10000120C4F80120B5F805209A8003B030BD57
:10FF200013B510F0FD041378A0F102001FBF0F4CB1
:10FF30000DF1080C01944C791CBF0CEB941414F8CF
:10FF4000044C012864F347038CBF00200120137088
:10FF50001346147860F3000403F8014B0868C2F8F4
:10FF600001008A889A8002B010BD00BF0302FF0121
:10FF700002210FF08BBD38B505460C4661B1FFF785
:10FF8000F7FF08B9FFDFFEE70389A58023816381BE
:10FF90004389A3818389E38138BD37B50B780D464A
:10FFA000212B11D9ADF8040001A88DF806200AF024
:10FFB00001F907F067FA044618B921212846FFF72E
:10FFC00017FF204603B030BD0824FAE72DE9FF47AC
:10FFD000044608B9FFDFFEE77223037083681A78CE
:10FFE000063A102A3CD8DFE812F04C003601110026
:10FFF00036013601420043013B003B003B006400F8
:020000040016E4
:10000000430148013B0043013B014301B3F8037046
:10001000BEB23046FFF7ACFF0546304607F01AFF88
:10002000A36800BB227802215B7961F30712678025
:10003000637322700322227307F080FA212128467D
:10004000FFF7D6FE304602F077FF304604F0D4F9D1
:100050003146012012F024FCAB7D6FF38203AB75B7
:1000600004B0BDE8F0875B7985F82A30E6E7DA1D51
:10007000B3F80510B3F8030004B0BDE8F04708F08A
:10008000D9B89E883046FFF773FF054608B9FFDFF1
:10009000FEE707F053FAA36831460120DA882A8187
:1000A0001A895B896A81AB8112F0FAFB0023AB737A
:1000B000D6E793F80390B9F1000F07D0B9F13C0FE0
:1000C000CED0B9F1020FCBD0FFDFFEE707F036FA52
:1000D000A568AB790BB9FFDFFEE7012BAE880ABF3D
:1000E000714B4FF0FF0A93F803A0504607F0EEFA69
:1000F000074608B9FFDFFEE7022130460FF08AFC11
:10010000044608B9FFDFFEE72C22002115F0CDF9E7
:100110002023222120462370FFF76AFE95F80680EF
:10012000A37D304608F1FF314A424A4162F30103A0
:10013000A375E97EAB7E43EA01232381697F2B7F90
:1001400043EA01236381E97FAB7F84F818A043EA87
:10015000012305218DF80420A3810FF05BFC0146EB
:1001600008B9FFDFFEE701AA304607F05BFEBB8857
:1001700003213046ADF80C30BB788DF80E300FF00F
:1001800049FC014608B9FFDFFEE703AA304602F04A
:1001900061FEBB8804213046ADF80830FB788DF84D
:1001A0000A300FF037FC014608B9FFDFFEE702AA6C
:1001B000304604F02FF805F1140305F11A0000226F
:1001C000194611F8016B814242EA0602F9D16ABB75
:1001D000E9798A0701D5FFDFFEE7E27B61F3470299
:1001E000E273AA682261AA8905F10E01A2820A4679
:1001F00012F8010B9A4240EA0909F9D16378A01C70
:10020000B9F1000F1BD1284A517A490861F347031D
:100210006370D2F80A30C4F80230D389B8F1010F04
:10022000838016D1204B03229A7019E7E27B0121CB
:1002300061F34702E2736A6922619A88D4E7012276
:1002400062F347036370D5F80E30C4F802308B8830
:10025000E4E7FFDFFEE704B0BDE8F04701F0D6BBFE
:1002600007F06CF9104A137D43F004031375F7E6A9
:1002700004B0BDE8F04707F061B90B4CA278052A3D
:100280000BD1DB78002B3FF4EBAEE078FFF7D4FC2A
:1002900007F054F90323A370E2E6042A7FF4E0AEEA
:1002A00007F04CF90223F6E71C0300202DE9F84380
:1002B000037806460C4617461B09013B092B00F242
:1002C000F280DFE813F0B700BE00F000F000F000AD
:1002D000F0000A00F000F000B00085682B78063BC3
:1002E0000F2B00F2A080DFE803F0089E9E9E9E9EEA
:1002F0001B9E9E9E237188500E5FA888FFF73BFED1
:10030000102312211BE041B1EB782A7943EA022342
:100310008B806B790B72AB794B720A231C210EE038
:1003200019B103230B726B888B8009231B2106E014
:10033000EE78002E40F0B98041B91A2310213B809D
:100340000CB1218063800020BDE8F8836A792B79A5
:1003500043EA02238B806B8B4B820B826A7F2B7F5D
:1003600043EA02238B82EA7FAB7F43EA022301F157
:100370000802CB8205F10801E879FFF7D1FDAB79DE
:10038000012B04BFE3732676D7E751B14FF6FF7315
:1003900001F1090228798B80EB780B72691DFFF758
:1003A000BFFD10232021CAE769B12A79EB7843EA1F
:1003B00002233F4A8B806B790B72AB794B72137DB2
:1003C00023F0040313750A232121B8E791B1AB8808
:1003D0008B80EB780B72AB79022B07D8354AD35C54
:1003E0004B72EB79022B03D9FFDFFEE7FFDFFEE75D
:1003F000D35C8B720B232221A1E779B14FF6FF73F7
:100400008B802B794B72EB798B72EB783C2B03D082
:10041000432B06D0FFDFFEE7012323720B232621A7
:100420008DE70223F9E73A4621463046BDE8F84316
:1004300001F03EBC037B022B01D140885EE7FFDF69
:10044000FEE790F80C80B8F1020FECD9B8F1030F79
:1004500027D119B345882846FFF78AFD737B90F8AA
:100460001890042123722846A5800FF025FB4146F1
:1004700028460FF021FB072128460FF01DFB052120
:1004800028460FF019FB022128460FF015FB00212A
:1004900028460FF011FB4846FFF7CEFB0923112138
:1004A0004DE7FFDFFEE7FFDFFEE70023194646E7E3
:1004B0001C030020CCD11500012838B51FD18CB207
:1004C0002046FFF755FD054608B9FFDFFEE7037834
:1004D000212B16D007F02AF850B112234480037064
:1004E000022303730023AB73BDE8384007F026B83E
:1004F000294620461322BDE83840FFF74EBDFFDFF6
:10050000FEE738BD2DE9F041074615460C4609B90E
:10051000FFDFFEE71223137091F80080B8F1020F9D
:1005200025D1FFF725FD064608B9FFDFFEE7628803
:100530004FF6FF739A4202D1A38893420BD106F083
:10054000FDFF2368EB6063682B612389AB82002386
:10055000B373BDE8F081002BF1D1807B0128F8D185
:10056000044A394612F060F986F80E80F1E7FFDFA1
:10057000FEE700BF80C3C90107B520380B46052838
:1005800004D8DFE800F0230310031607072003B0A8
:100590005DF804FB897818880AF056F903B05DF815
:1005A00004EB06F06FBF086803B05DF804EB01F0E0
:1005B000B9BD0A8801A84B886946ADF80420ADF89A
:1005C00006300AF0DEF806F05DFFE0E70620DEE721
:1005D00030B5054685B008460C46FDF715FAC8B992
:1005E000222D19D0252D17D0202D17D1254602A94F
:1005F00001A835F8023BADF8043009F00FFE06F013
:1006000041FFDDF80A30C4F802309DF80E302B713E
:1006100005B030BD1020FBE70620F9E70720F7E71B
:10062000004870472503002010B5174C1622002102
:10063000204614F03AFF012304F10A00A37005F0EC
:1006400065FDA8B105F05AFD012804D1E37B012026
:1006500063F03F03E3734FF46173400023824FF470
:10066000007360726382FFF72FFB38B1FFDFFEE794
:10067000062104F10A000EF01BFEE7E700F00AFD78
:10068000BDE8104001F098B91C03002073B5064680
:10069000FDF794F918BB134CD4F8090004F10905CF
:1006A000E37BB4F80D202946009030468DF80630E3
:1006B000ADF80420FFF71BFC034668B9FFF704FB05
:1006C000034648B10098BDF804109DF80620C4F810
:1006D0000900A4F80D10E273184602B070BD102393
:1006E000FAE700BF1C03002038B50546FDF78CF97A
:1006F000044640B905492A46487A0A314008FFF7BE
:100700000FFC204638BD1020FCE700BF1C03002072
:1007100030B5044685B008460D46FDF775F9A8B911
:10072000B4B90E4B9B78043B012B14D809F016FB8F
:1007300002AA0DF107010DF09FF99DF807002A4666
:1007400002A9FFF7EDFB204605B030BD1020FBE706
:1007500043F20400F8E70820F6E700BF1C0300207E
:100760002DE9FF410D46044628B909F05CFCA0B113
:1007700043F203200EE0FFF722FB58B9264604EBB4
:100780008507BE42F1D002A956F8040BFFF70AFA1A
:100790000028F6D004B0BDE8F081154E30722CB3BD
:1007A00004EB8507A74202D100203572F2E70DF174
:1007B00007012068A046FFF7F5F908B1FFDFFEE763
:1007C0009DF8073002A804348DF80830D8F80030BE
:1007D000D3F80120CDF80920B3F80530ADF80D307D
:1007E00009F052FC0028DDD0FFDFFEE72046D1E70C
:1007F0001C0300202DE9F04F0F468DB0164605462C
:10080000B0B92B1E01A818BF01238DF8043009F0E0
:1008100058FC002850D109F064FC044600284BD154
:1008200015B1043DB4424AD10024FFF70FFA2AE083
:100830001146FFF7C4FA044628BBB44211D1002385
:1008400006F1FF3A5345DCDA03F1010805EB8304B6
:100850005FFA88F805EB880BC1464E4517D843462A
:10086000F0E755F8240002A91030FFF7BBF948B9AA
:100870000FB90134E1E757F82400FDF79FF800288D
:10088000F7D01020044620460DB0BDE8F08F206858
:100890005BF8041B037C0A7C534013F0FE0F06D167
:1008A00006221131113014F0EFFD00283DD009F17E
:1008B00001095FFA89F9D0E743F20424E3E76868A5
:1008C00002A91030FFF78EF908B1FFDFFEE755F8F7
:1008D000043FD3F8112003F11001CDF80920B3F83B
:1008E0001520ADF80D200DF10F0253F8040B8B42CB
:1008F00042F8040BF9D15FB90DF11F0001F0F0FBD4
:1009000002A8013409F09DFB00288BD0FFDFFEE731
:1009100057F824300DF11F0203F1100153F8040BB6
:100920008B4242F8040BF9D1EAE743F20524AAE727
:1009300037B50446FDF742F8002847D16068FDF757
:100940008AF8002842D162884AF2B8139A423FD806
:100950002378C3B9FFF7B8F9F8B9606801F0A4FBD0
:100960001C4D2378AB74FFF771F963886846002B40
:1009700008BF4FF461732B82ADF8003009F098FB8B
:1009800058B1FFDFFEE7013B012B21D86378022B32
:1009900005D0032B03D043F2022003B030BD0D4A33
:1009A000D37400220B4B0092DB7CADF80420022BA9
:1009B00003D0032B04D0FFDFFEE740238DF8053082
:1009C0006846FFF75DF906F05DFDC5E71020E4E736
:1009D0000720E2E71C03002010B50446FDF714F8D9
:1009E00008B1102010BD606830B1FDF72DF8002867
:1009F000F7D1606801F074FB044B00201A8A628012
:100A0000DA7C62709B7C2370ECE700BF1C03002043
:100A10002DE9F0478EB080460E461446FCF7F4FFF1
:100A200018B110200EB0BDE8F0873046FDF713F87E
:100A30000028F6D12046FDF70EF80028F1D1534DDD
:100A4000AA78012A01D1002CEBD098F80030FF2BB6
:100A500004D1012A00F080810420E3E7013BDBB2EE
:100A6000FD2B40F27681002C00F00581043A012A2A
:100A700040F263810023ADF804302378013B042B5E
:100A80004ED8DFE803F00312192027009DF8043048
:100A900023F0130343F013038DF80430277D032F55
:100AA0003ED8DFE807F01C1C1C1C9DF8043023F026
:100AB0001D0343F01D03EFE79DF8043023F01503F9
:100AC00043F01503E8E79DF8043023F0120343F0E8
:100AD0001203E1E79DF8043043F01003DCE7BDF8B2
:100AE0000430002213F004095FFA83FAADF80830ED
:100AF0008DF8032004D06068FCF760FF002890D1D7
:100B0000AB7C3BB1EB7C022B04D16068FCF7A3FF0C
:100B1000002886D11AF0080F04D0A389802B01D9B0
:100B200007207FE71FB12B7A59EA0303F8D0E37D52
:100B3000C3F300138DF83030637D022B05D003D949
:100B4000042BEDD1032300E001238DF82C30012389
:100B500060688DF82E308DF82A7090B10DF1030188
:100B6000FFF720F800287FF45DAF6368D3F8010039
:100B70000990B3F80530ADF82830E37B43B1062087
:100B800050E70990ADF82800F7E700BF1C030020EC
:100B9000238A002BF3D1A37C002BF0D1E27C12F04E
:100BA0001F09ECD1BDF808304FF0010A8DF81790FD
:100BB000ADF81930A3688DF816A0C3F30721D8B299
:100BC000C3F307438DF818908DF81C108DF81D3075
:100BD0008DF8203007238DF81F108DF81030062374
:100BE0008DF81B008DF8113005238DF81E008DF84F
:100BF000123004238DF8133003238DF814300223B0
:100C00008DF815300EAB03EB521313F8283C8DF81A
:100C10002130FEF7EFFF9DF8033004A98DF8220084
:100C200006A88DF823308DF82B908DF82F908DF835
:100C300033A08DF82D908DF8349009F091FB06F0DB
:100C400021FC00287FF4EEAEA27B9DF80400A3896E
:100C5000EA710407BDF804202B80AA80AF7102D589
:100C60000BB980232B8000F001000230FEF77EFFDD
:100C7000002388F80030002306AC8DF801308DF891
:100C800002308DF803308DF80430002E57D1102239
:100C90003146204614F009FC01AA0DF1020108A812
:100CA000FFF724F800287FF4BDAE0DF103020DF12B
:100CB00001012046FFF71AF800287FF4B3AE9DF833
:100CC0000230D80740D42B799DF8032013F0040399
:100CD00003D1A97909B1910738D1D20708D53BB919
:100CE0002B8844F24F62013B9BB293423FF618AF10
:100CF00000234FF4407402A88DF80A30BDF81C3070
:100D0000ADF808408DF80B30069B039309F0ECFB1F
:100D100006F0B8FB00287FF485AEBDF824308DF8CE
:100D2000120004A88DF81330089BADF8104005930D
:100D300009F059FC06F0A6FB74E6082072E696E876
:100D40000F0084E80F00A7E70A206BE643F20120BA
:100D500068E643F2040065E6002C7FF48BAE8AE778
:100D6000F7B53E4D0E46AA78023A012A6CD8002803
:100D70006CD10EF0E5FE30B9AB78032B03D1122411
:100D8000204603B0F0BD10F009FFC0F120040020A0
:100D90000EF002FE241A00200EF0D2FEAB782044A2
:100DA000042B08BF0138002801DAFFDFFEE7FF2827
:100DB00001DDFFDFFEE700284BD0032BEF780ED1DB
:100DC000304606F083FC002845D04378002BD6D06F
:100DD000304606F08FFC04460028D1D1EE7008F0B2
:100DE000BDFF0446FEF706FF014620460CF0EAFD73
:100DF000012368468DF800308DF8013000238DF80E
:100E000002302B88ADF80330EB798DF8053009F00E
:100E100045FC06F037FB044608B1EF70B0E7AB784D
:100E2000032B0FD1E87806F051FC08B9FFDFFEE78D
:100E300043780BB9FFDFFEE7013B43700520FEF767
:100E400095FE9DE70420FAE7082499E743F204049D
:100E500096E7132494E7052492E700BF1C030020C3
:100E600037B5F8B9124DAB78043B012B1DD80123DF
:100E70008DF800008DF8020068468DF8013009F009
:100E80000DFC06F0FFFA044638B9AB78052B07D104
:100E9000E878FEF7D1FE0323AB70204603B030BDE7
:100EA0000223F9E743F20404F7E70824F5E700BF5B
:100EB0001C030020F7B5064608460C46FCF7CBFDA0
:100EC00050BB3046FFF754F8054638B30378212B62
:100ED00027D9877D07F0030794B9012F1AD1AB7B7F
:100EE000022B15D024B9684600F06CFA70B96C4634
:100EF0002146304607F07EF940B90123AB7305E087
:100F000021460120FEF7C2FF0028E6D003B0F0BD65
:100F10001120FBE7FFDFFEE71020F7E743F20200B6
:100F2000F4E70820F2E738B50D460446FFF720F84D
:100F3000014628B12A462046BDE83840FFF72DB8C3
:100F400043F2020038BD0000012808B504D1084B67
:100F50009B78012B09D041B901380023C0B209F0B8
:100F6000DFF8BDE8084006F08DBA43F2040008BD82
:100F70001C03002070B5064608460C461546FCF7D3
:100F800043FD08B1102070BD2846FCF73DFD002848
:100F9000F8D12A462146304609F040FC06F072FAA4
:100FA0000028F0D194F900307F2B08BF0520EAE734
:100FB000012307B5ADF8000068468DF802308DF8C2
:100FC00003108DF8042009F009FC06F05BFA03B069
:100FD0005DF804FB002307B5ADF800006846ADF8E6
:100FE00002308DF8043009F0F9FB06F04BFA03B03B
:100FF0005DF804FB37B5054608460C46FCF7DEFCF9
:1010000058BB2846FEF7B4FF48B30378212B29D9F3
:10101000164B1B7D5B0727D4227812F0F80F18D1EE
:10102000637813F0F80F14D142EA030111F0FC0FBA
:1010300011D18DF80330022368468DF80220ADF8F7
:101040000430ADF8005009F029F906F01BFA03B09E
:1010500030BD0720FBE70620F9E71020F7E743F251
:101060000200F4E70820F2E71120F0E71C0300205B
:1010700038B5054608460C46FCF7C6FC38B921468B
:10108000284609F023F9BDE8384006F0FBB91020E6
:1010900038BD0000024B00221A605A601A81704766
:1010A000320300202DE9F04FA5B080469A46154640
:1010B0009DF8B890ADF80610002A40F00C8101268A
:1010C00004AF4FF4C0530022394630468DF8126009
:1010D000ADF8103003F0F0FA0446002840F0088123
:1010E0008DF812604FF4285301461C228DF80A0037
:1010F00016A8ADF8103014F0D8F9112398F8012093
:1011000002AE0CA98DF80830C2F3010298F8003045
:1011100016A85200ADF83A408DF809309DF80A3013
:1011200042F001020D9623F007030C971A439DF835
:10113000583043F002038DF80A2006AA8DF8583083
:10114000B8F80830ADF83830B8F80A30ADF83C30AF
:10115000D8F80430109303F023FC0446002840F034
:10116000C780D8F80400FCF76FFC002840F0C4806A
:101170000123DFF8E8814FF0010B0CA916A898F8BD
:1011800008208DF812B063F30002BDF81830A8F8FB
:10119000003042F6012388F8082006AAADF8103086
:1011A0009DF80A3023F0070343F002038DF80A305C
:1011B0000223ADF83830ADF83C300DF10603109342
:1011C00003F0EEFB0446002840F09280BDF8183092
:1011D000A8F80230002D00F0A08001461C22ADF8D6
:1011E0000C000DF10C0A8DF80E00CDE913001DA8BE
:1011F00014F05BF9112308AA11A98DF80C301DA871
:101200009DF87430CDF848A043F002038DF816B075
:101210008DF8743042F60423ADF8143005AB119309
:101220002B88ADF828306B88ADF82A30AB88ADF844
:101230002C30EB88ADF82E309DF80E306BF3420366
:101240008DF80E300823ADF84C30ADF850300AABB5
:10125000159303F0A5FB00285DD1BDF82030A8F858
:101260000430B9F1000F67D1012442F6A6231C22F5
:101270004946ADF8089016A886F802908DF81240FD
:10128000ADF8103014F011F9112306AA0CA916A814
:101290008DF808309DF80A308DF8744023F007036C
:1012A000ADF83840ADF83C4043F003038DF80A3008
:1012B0009DF8583043F002038DF858301DABCDE94E
:1012C0000C76109303F06CFB044688B9234BBDF8F1
:1012D0001820DA800CE01046FCF770FB00283AD1A9
:1012E00029460120FEF7D2FD044600283FF4E7AE70
:1012F000204625B0BDE8F08FD8F80400FCF7ABFB22
:1013000000287FF435AF98F8013003F00303023B67
:1013100018BF01232DE70446EAE7BAF1000F01D117
:1013200000239CE7FEF7FEF908B10324E0E7FEF78F
:10133000F9F90028F4D0F8E7B9F1010F02D0074B12
:101340000022C6E7FEF7EEF90028EED1FEF7EAF933
:101350000028F4D0E9E71024CAE700BF32030020D8
:1013600030B5082385B0164D0446ADF80630AB887D
:101370000BB3FCF723FB00BB21460120FEF786FDE3
:10138000B8B9238801460DF10602A888ADF80830E7
:101390006388ADF80A30A388ADF80C30E388ADF867
:1013A0000E3002AB03F039FEBDF80630082B18BF33
:1013B000032005B030BD0620FBE71020F9E700BF91
:1013C0003203002030B5174D85B00446AB881BB3FF
:1013D0000023CDF80CD0ADF80A300823ADF8083062
:1013E000FCF7ECFAD0B902AAA9884FF6FF7003F017
:1013F00071FF78B9BDF80830082B11D1BDF8003065
:101400002380BDF802306380BDF80430A380BDF8AE
:101410000630E38005B030BD0620FBE71020F9E779
:101420000320F7E7320300201FB50223ADF80600C2
:1014300009480DF10E02ADF80E3000210DF1060342
:10144000408803F0EAFDBDF80E30022B18BF0320E0
:1014500005B05DF804FB00BF32030020002307B590
:10146000ADF8023002230190ADF80030FCF7CCFA61
:1014700070B9084B6A464FF6FF70598803F02AFF8F
:10148000BDF80030022B18BF032003B05DF804FB49
:101490001020FAE732030020F7B5204D1446074626
:1014A0000E462B7ADA0734D50846FCF787FA90BB4C
:1014B000F82C2BD83846FCF781FAD8B901A928882E
:1014C00003F059FD18BB3B7801A928888DF8053039
:1014D00003F02EFDD8B90223694628888DF8003024
:1014E0009DF805301B071CBF0A238DF8003003F060
:1014F00009FA60B9334601AA00212888ADF80440F2
:1015000003F08BFDBDF80430A34200D00C2003B0E3
:10151000F0BD0F20FBE71020F9E700BF32030020E9
:10152000002337B5ADF8023005460B880C46019014
:10153000ADF80030FCF788FA10B1102003B030BDD0
:101540002046FCF761FA0028F7D115B1BDF800304C
:1015500053B1064B6A464FF6FF70198803F0BAFE86
:10156000BDF800302380E9E70C20E7E732030020D4
:1015700011230B7000234B70437E062B18D8DFE835
:1015800003F009171717041114000B78022262F3F5
:1015900007130B700B781F2B82BFC37DC3F30503AA
:1015A0004B7070470B780322F1E70B780422EEE7CB
:1015B000FFDFFEE738B505460C4605F0B7FF08B972
:1015C000FFDFFEE72223458003702368C360BDE888
:1015D000384005F0B3BF70B505460E46144605F019
:1015E000A5FF78B1A223224600F80C3B04F11403B6
:1015F00052F8041B9A4240F8041BF9D1BDE8704030
:1016000005F09CBF314628461322BDE87040FEF726
:10161000C4BCF0B5022791B00C46154608213A46E5
:101620000646ADF8247006F051FC0A9090B10423F0
:10163000DC3407A88DF81D700DEB03010F960B9499
:101640008DF820308DF8305010F0FBF808B1FFDF36
:10165000FEE7012011B0F0BD38B50C46FEF788FC5E
:10166000054608B9FFDFFEE70CB9FFDFFEE71A35D4
:1016700000214FF4B672204613F017FF012104F148
:10168000DC00256110F0C8F808B1FFDFFEE738BDC7
:10169000F7B5078A05460E463846FEF769FC2B78F3
:1016A0000446013B0D2B00F28481DFE813F0B70004
:1016B00082010E003400630074008D00D000EE0043
:1016C0007E01A8005100A800A800072138460EF0AE
:1016D000DDF9064608B9FFDFFEE7AB4B93F858206B
:1016E000D2070CD5DB6DC6F81D306B687367AB682D
:1016F000B3672378252B00F08980FFDFFEE7032105
:101700001D300DF0D5FDD6F81D30A04AB3FBF2F127
:1017100002FB1133E7E7072138460EF0B7F908B9A5
:10172000FFDFFEE703789B070DD52378252B0AD131
:1017300002233370037F337100F11D032D30B3603A
:10174000F06003B0F0BD037843F001030370F8E7E5
:10175000072138460EF09AF908B9FFDFFEE7037853
:10176000DF0604D507233D3033707060E9E743F0AE
:101770000803EBE790F91630002B01DAFFDFFEE7F4
:101780002B7B0821AA88384603F0010303B0BDE88B
:10179000F04006F06EBC08B9FFDFFEE76B684BB1A6
:1017A00000F11A0203F1100153F8040B8B4242F8C6
:1017B000040BF9D128212046FEF71AFBE37D2A7A93
:1017C00062F30503E375BCE7072138460EF05EF9C6
:1017D000044608B9FFDFFEE7022185300DF068FD01
:1017E0000423337004F5B2737C347360B4F80930A9
:1017F00074613382644BB3601033F360A1E7072157
:1018000038460EF043F908B9FFDFFEE72A462146C5
:10181000384603B0BDE8F040FFF7DDBE08B9FFDF92
:10182000FEE70378212B8CD92B7901462A46012B20
:1018300002BF837D43F0800383753846FFF7CBFEFC
:101840002321204603B0BDE8F040FEF7D1BA2A7943
:1018500008213846B28006F039FB0446B06010B16A
:10186000052333706DE7072138460EF00FF908B9EC
:10187000FFDFFEE7022300F1620110225E300DF06F
:1018800042FF04702B7943705BE7072138460EF066
:10189000FDF8054608B9FFDFFEE790F8843003F055
:1018A0000303012B1AD1A37D5E06C3F3801035D448
:1018B00095F8A020D10731D495F88820D20755D4C7
:1018C00095F888309B0709D5D5F8602105F17D0191
:1018D00095F87C0010324008FEF722FB02239DF8A9
:1018E000052001A938468DF8043095F88430C3F3FB
:1018F000010363F3010295F888308DF8063095F8FE
:10190000A0308DF805208DF80730FFF753FE2378BF
:10191000252B3DD0212B3FD0FFDFFEE7D5F85C2102
:101920000AB3C3F3401195F8836040EA410141EAEC
:10193000860111740028BFD004F11A0304F12A01B2
:1019400053F8040B8B4242F8040BF9D195F8A03000
:1019500043F0010385F8A03095F888306FF3000359
:1019600085F88830ACE70028AAD1A5E7D5F858213A
:10197000002AA5D0C3F3401395F883105B0043EA17
:10198000810313749CE700BF3C03002040420F001A
:1019900022212046FEF72CFA072138460EF08CF85B
:1019A00000283FF4CEAEFFDFFEE76B6800225A70DE
:1019B000C7E6FFDFFEE700BF10B50F4C94F85830C4
:1019C0006FF3000384F858300023E3650FF023FF22
:1019D000204604F0C9FB18B9102120460DF068FC20
:1019E000064804F0A7FB18B9102104480DF060FC6C
:1019F000002384F8303010BD3C0300204C0300204D
:101A00000B46014603F1DC000FF04DBF83681A78E6
:101A1000092A70B5054686B042D00A2A3ED0072A68
:101A200040F09180B3F80360B0B2FEF7A1FA04462B
:101A300008B9FFDFFEE70378212B22D0282B26D11F
:101A4000AB685A7B1ABB9A7B0ABB5A1D0D339A426C
:101A500019D104F11A030DF1020204F12A01ADF8C3
:101A6000006053F8040B8B4242F8040BF9D168462E
:101A700008F06CFE05F006FD70B929212046FEF73E
:101A8000B7F906B070BD12F8011B0029DFD006B00F
:101A9000BDE8704005F052BDFFDFFEE701225A713C
:101AA000B3F803603046FEF763FA044608B9FFDF77
:101AB000FEE70378212BE4D0AB685A79002A40D0A6
:101AC0009B78002B3DD105F039FDA37D9B0613D5F6
:101AD000E38A03F47D53B3F5825F0CBF062305232D
:101AE00063762378292B1AD1072130460DF0CEFFDB
:101AF000054618B9FFDFFEE70423F1E7252120465C
:101B0000FEF776F90323694605F1DC008DF8003015
:101B10000FF0BFFE10F0FD0FB3D0FFDFFEE7242B68
:101B2000AFD13146042010F0BBFE22212046FEF743
:101B30005FF9072130460DF0BFFF0028A1D0FFDF7D
:101B4000FEE7FFDFFEE7FFDFFEE700002DE9F043E1
:101B500087B006460F469046FEF70AFA81460028EF
:101B600045D00378212B42D9232B40D090F9163051
:101B7000002B3CDB072130460DF088FF044648B9B6
:101B8000072130460DF046FF044630B1014630468D
:101B9000FFF762FD94F8B9302BB1164D95F835304A
:101BA0000BB3FFDFFEE704F1B805DC34EC6099F815
:101BB0000030222B01D0242B06D125214846FEF7E8
:101BC00017F901E02C6434350123694628462E625A
:101BD0006B70A5F80480AF600FF033FE10F0FD0FBE
:101BE00005D0FFDFFEE7002CECD03435DDE707B091
:101BF000BDE8F0833C030020F0B587B00546FEF752
:101C0000B7F90378222B16D9072128460DF03EFF9D
:101C1000044690B100F162060527B4F8603053B174
:101C2000B4F85E30F218F35C527843B1214628468E
:101C3000FFF7EFFCC8B907B0F0BDFFDFFEE792B2D7
:101C400008212846ADF8042006F040F9029000284B
:101C5000F1D0694604F1DC008DF800700FF019FE38
:101C600010F0FD0F01D0FFDFFEE702231022314606
:101C700004F15E000DF072FDCFE710B586B00446AA
:101C8000FEF776F90378222B10D9072120460DF0B4
:101C9000FDFE08B9FFDFFEE706236946DC308DF85C
:101CA00000300FF0F6FD08B1FFDFFEE706B010BD13
:101CB000F8B5037805460C4616461B09072B0CD0D1
:101CC0000A2B52D0022B00F0538100231946338097
:101CD0000CB1218063800020F8BD82681378072B47
:101CE00006D0093B012B3ED879BB0A231A21EEE727
:101CF00041B3B2F80300888080B2FEF739F9074695
:101D000008B9FFDFFEE7C07B04F1080207F110010C
:101D10004008FEF705F9AB68B3F80D302382AA68D6
:101D2000D2F80530C4F81230D2F80930C4F81630B1
:101D3000A37E23F0070343F00103A376BB7D43F0AA
:101D40000803BB751C231421C1E7B2F80300888087
:101D500080B2FEF70DF908B9FFDFFEE704F10801D4
:101D6000FFF706FCC1E7FFDFFEE709B1C3698B801F
:101D70002B7B013B0D2B00F2F980DFE813F0C20052
:101D8000F7000E00F700F700F700F700F700F70084
:101D9000F7007100F7009A00BC0014B90D2313215D
:101DA00095E7A088FEF7E4F807210546A0880DF026
:101DB0006DFE08B9FFDFFEE7426F9178C1F3800343
:101DC00001F003005B00012808BF43F00103C1F3E9
:101DD000C000C1F3001143EA800343EAC103117854
:101DE00001F0070143EA0113517801F0010143EAD0
:101DF000C11311792381C1F30001D378A372E37A6F
:101E000061F300031179C1F3400161F341031179DA
:101E1000C1F3800161F382031179C1F3C00161F361
:101E2000C3035179E372C1F30001237B61F3000323
:101E30005179C1F3400161F3410351795279C1F302
:101E40008001C2F3C00261F3820362F3C303237310
:101E50002B78232BA2D926212846FDF7C9FF9DE721
:101E600014B91023182132E7A088FEF781F8072162
:101E70000746A0880DF00AFE08B9FFDFFEE72B69D0
:101E8000A360037843F004030370437813F0020265
:101E9000237B0AD043F0010323733B78232BE0D943
:101EA00027213846FDF7A4FFDBE762F30003237325
:101EB000D7E714B90F23152109E7A08804F1080713
:101EC000FEF756F82B6904F10E020A25B3FBF5F173
:101ED00005FB1133303302F8013DBA420B46F5D110
:101EE000A37B43F00103A3730378232BE2D92721BB
:101EF000FDF77EFFDEE70CB12B7C23720923162150
:101F0000E5E614B90E231921E1E62B7C0021022B12
:101F1000A160A18115D003D8012B12D0FFDFFEE70D
:101F2000DA1E012AFAD86A7C191F02F00F024B420E
:101F300062F07F024B412272627A63F301026272A5
:101F400000E02372A088FEF713F803780546212BE2
:101F5000D8D0232B01D0FFDFFEE70721A0880DF0AA
:101F6000ABFD22212846FDF743FFCBE7FFDFFEE76D
:101F700009B143888B802B7B012B08D0022B42D0E8
:101F8000002B40F08F8024BB092317219FE6002CF3
:101F900090D0A088FDF7ECFF0721A0880DF076FD1A
:101FA00008B9FFDFFEE7D0F81D3004F10E0204F19E
:101FB00008050A20B3FBF0F100FB1133303302F8BF
:101FC000013D95420B46F5D1A37B6FF30003A3734C
:101FD00070E7A088FDF7CCFF07210546A0880DF02B
:101FE00055FD08B9FFDFFEE7437813F0020F14BF79
:101FF0000223012323722B78232BC5D927212846BE
:10200000FDF7F6FEC0E7002C3FF47CAFA088FDF79B
:10201000AFFF08B9FFDFFEE70022A260A281837D47
:10202000A17AC3F3401321F007019A0042F00302A2
:102030000A43A272827D13EA9213C2F3801106D082
:10204000C37D03F03F03A3F1100253425341A27A30
:1020500063F3C302637A61F3C303A27263726B7B9F
:1020600003F00303012B7FF44DAF637AA97B43F0A8
:102070000403227BC1F300016372EB7BC3F3000313
:1020800063F30002637B61F30003E97BC1F340016A
:1020900061F341022273AA7BC2F3400262F341035F
:1020A00063732FE7FFDFFEE7034630B518B90A4A2E
:1020B00082F8300030BD094C00F110051868083373
:1020C00053F8041C2246AB4203C21446F6D1024B1D
:1020D000012283F83020EDE73C0300205C03002060
:1020E00038B50E4D044695F8303043B905F120015E
:1020F00005F110000FF0EAFB012385F83030084DA0
:10210000234605F110042A46083303CAA24243F8C5
:10211000080C43F8041C1546F5D138BD3C030020DB
:102120005C03002038B50446E8B1FBF747FC00BB70
:10213000631E0A21053413F8012FA2F13005092D81
:1021400019D801FB0020A342A0F13000F3D1431CB9
:1021500011D00A4B93F85820D86542F001020020B4
:1021600083F8582038BD054B93F8582060F30002DF
:10217000F5E71020F6E70720F4E700BF3C03002056
:10218000007800F00F03012B08D0022B18D0CBB938
:10219000C0F30313000915D10B7070470009013813
:1021A00003280FD8DFE800F00206080A0123002008
:1021B0000B7070470223FAE70323F8E70423F6E7DE
:1021C0000620704707207047042811D8DFE800F088
:1021D00003060A0C0E00002008707047112300202F
:1021E0000B7070472123FAE73123F8E74123F6E724
:1021F000072070472DE9F041074686B0084688461B
:10220000FBF729FC002857D13846FDF7B1FE0646FA
:10221000002855D00378222B55D1B8F1000F4BD0B0
:10222000837D5A074FD41B064FD4072138460DF043
:102230002DFC044650B9072138460DF0EBFB04464F
:10224000002844D001463846FFF706FA94F8B93022
:1022500033B1214D95F83530002B3AD0FFDFFEE742
:1022600004F1B8050223DC3430462F626B70002382
:1022700098F800202B810123C2F340012C612B71BF
:10228000134043EA8103C2F38001C2F3C00243EA70
:10229000C103242143EA02132A7D22F01F021343C3
:1022A0002B75FDF7A5FD694628460FF0CAFA10F018
:1022B000FD0002D0FFDFFEE7102006B0BDE8F08190
:1022C00043F20200F9E70820F7E70D20F5E70420C4
:1022D000F3E73435C6E700BF3C0300202DE9F04F9B
:1022E00093468FB02F4A82460C461E46106805ABB7
:1022F0005168128903C350461A80FDF739FE8046A3
:10230000002800F05D820378262B40F05E823CB10D
:10231000072150460DF0BAFB814630BBFFDFFEE7D8
:102320005846FBF74BFB002840F051829BF80030E9
:10233000C3F30213042B32D89BF80120062A2ED9AE
:102340009BF80230102B2AD89A4228D89BF80330E9
:102350005D0708D49BF80420134302F0040203F045
:1023600008031343D4D006202CE2002C00F0D181C6
:1023700004F17F02D2B2092A0ED8813C092C0BD875
:10238000DFE814F0C501C301C1010A00BF01BD01AE
:102390000A00BB01B90112000F2289F804200720AE
:1023A00010E200BFD0D115000A2289F8042005F000
:1023B000BDF8002800F00D8201228DF8202009F1DF
:1023C0000402099299F80440002C40F086819BF8A1
:1023D000001098F816209BF80070C1F340019BF89C
:1023E0000000C7F3800761F34512C0F3C00C67F328
:1023F0008612D9E91D3588F81620C0F30212C009EB
:102400000193520142EA0C2242EA4022B9F800004C
:1024100020F478700243A9F800209BF8012089F885
:1024200005209BF80000AA7800F0010060F301028B
:1024300061F3820267F3C302AA70D2B299F8011065
:1024400061F30412AA7099F80020C2F342122A70B4
:1024500099F80120C2F340026A709BF802206C7167
:10246000EA702C719A78C2F3C002174000F05381D1
:102470003046FBF7A3FA002840F0A981F068FBF78B
:102480009DFA002840F0A381F069FBF797FA002835
:1024900040F09D81F268019BC9F80820F269C9F8F3
:1024A0000C2099F801205978C2F34000014361F3F0
:1024B0004102019B89F80120987899F80120C0F326
:1024C0000010C2F30001014061F3000289F801200D
:1024D000002289F81C2008F10F02C9F8142008F125
:1024E0000102C9F81820AA7802F00302012A40F07C
:1024F000DB809A7802F00302012A40F0D5809BF835
:1025000003106A79C1F3000161F300029BF8031024
:10251000C1F3400161F341029BF80310C1F3800154
:1025200061F382029BF80310C1F3C00161F3C3029F
:102530009BF804106A71C1F300012A7961F300026B
:102540009BF80410C1F3400161F341029BF80410B1
:10255000C1F3800161F382029BF804109346C1F33A
:10256000C00161F3C30B697985F804B01A7902EAF6
:102570000B0B5A7901EA020302935BEA030300F0B2
:1025800093803046FBF71AFA0146002840F01F817D
:102590000390142209F18C0012F087FF0399C9F807
:1025A00058119FB91BF0010F10D03069FBF72CFABE
:1025B000002840F00C81326902F11201C9F858215B
:1025C000C9F88C1002F11401C9E924121BF0020FA2
:1025D0000DD07069FBF738FA002840F0F880726976
:1025E000002A00F0F480C9F89820C9F8602114226C
:1025F000002109F1A40012F058FF0022C9F85C2163
:1026000017B9029BD80711D53068FBF7FDF90028F0
:1026100040F0DD8032683FB902F11201C9F8A41020
:1026200002F11401C9E92A12C9F85C21029B990739
:102630003AD57068FBF708FA002840F0C880FDF72B
:10264000EFFF0268DFF890B1C9F8642182880BF1CE
:102650002001A9F86821827989F86A219BF8302045
:1026600042B90BF110000FF031F901220BF12001FA
:102670008BF830207268C9F8B010AAB199F86401DB
:10268000103209F265114008FDF74AFC534B766899
:1026900003F1100E1A46083603CA724546F8080CB4
:1026A00046F8041C1346F5D199F8011011F0020107
:1026B00039D098F8162042F0200267F3861288F885
:1026C0001620002953D0032289F806202FB98DF84F
:1026D000107004A95046FEF76DFF25214046FDF716
:1026E00087FB08A909F1DC000FF0D3F810F0FD001A
:1026F00068D0FFDFFEE7092257E6082255E60622EA
:1027000053E6052251E603224FE602224DE601225E
:102710004BE604714BE699F80120019BC2F340009F
:1027200059780140C3E6019BAA7898780243520782
:1027300019D528781A780EAB03EB4004550034F80D
:10274000244C2C4104F00304032C08BF0224002F66
:10275000AFD0012801D00428ABD1012A05D0042A2A
:1027600008BF0424A5E70C46A3E70424A1E7022C34
:1027700004D189F806408DF81010AAE7012C10D179
:10278000022209F1200089F806200D2212F08DFEA8
:1027900099F8002042F0020289F800208DF81040DC
:1027A00097E7042C15BF89F80610012298F8162027
:1027B00089F806201CBF61F3451288F816208CE7C3
:1027C00043F202000FB0BDE8F08F0820FAE71020B6
:1027D000F8E71120F6E700BF3C0300205C0300206F
:1027E0002DE9F04186B0054688461446FDF7C0FB4A
:1027F0000746002800F084800378272B40F0838070
:10280000284607210DF042F9054608B9FFDFFEE72B
:10281000B8F1010F867948D0B8F1020F2FD0B8F186
:10282000000F00D10CB107202EE0013EF6B2022EBF
:1028300023D8364B1E44B47A2B783846252143F0F2
:1028400002032B70FDF7D4FA2B7813F0010055D05A
:102850002A466FF30003694605F1DC0002F81D3BD0
:1028600002238DF804408DF8003002920FF011F829
:1028700010F0FD0008D0FFDFFEE7FFDFFEE7204697
:10288000FBF79CF818B1102006B0BDE8F081032ECC
:10289000C9D105F11D0304F1100254F8041B944240
:1028A00043F8041BF9D10024C6E7012E20D0022EE4
:1028B000B9D12046FBF782F806460028E3D101464D
:1028C000102205F11D0012F0F0FD631E31460534A3
:1028D0000A2213F8010FA0F13006092E0BD802FBD3
:1028E0000101A342A1F13001F3D1C5F81D10DAE7CF
:1028F000002CA1D097E74FF0FF31F6E72C77C3E724
:1029000043F20200C0E70820BEE700BFD0D11500A7
:1029100030B587B004460D46FDF72AFBA0B320462C
:1029200007210DF0B3F8044610B9082007B030BDF8
:102930002846FBF743F850BB23785807F5D504F138
:102940003D02294605F12000134651F8045B8142FF
:1029500043F8045BF9D1237843F01003190723707F
:1029600001D40020E2E76FF3C3032046694600F874
:10297000DC3B072301928DF800300EF08AFF10F047
:10298000FD0FEED0FFDFFEE743F20200CEE710209E
:10299000CCE7F8B504460E46FDF7EAFA48B30378EB
:1029A000272B01D00820F8BD072120460DF06EF836
:1029B000054608B9FFDFFEE78779022FF2D1437899
:1029C000DB07EFD5014632462046FEF722FE70B9FE
:1029D000B5F860300D2B0FD83B46102205F162018F
:1029E00005F15E000CF08FFE01234670037000209D
:1029F000D9E743F20200D6E71120D4E7F7B5044641
:102A000008460E461546FAF7D9FF10B1102003B05C
:102A1000F0BD2846FAF7F8FF0028F7D14FF6FF730C
:102A20009C4219D02046FDF7A3FAD8B14378811C07
:102A30002A465808FDF774FAEF1D00241021384685
:102A40000CF036FC05F117003B4632463146009447
:102A50000DF096FB2046DAE72846FDF745FE0028F4
:102A6000EAD0D4E743F20200D1E72DE9F041044671
:102A700088B008460E461546FAF7EDFF18B110204B
:102A800008B0BDE8F0812846FAF7E5FF0028F6D146
:102A90002046FDF76DFA804600286BD00378272B7F
:102AA00001D00820ECE7204607210CF0EFFF044698
:102AB00008B9FFDFFEE7038803F40173B3F5017F74
:102AC000EFD1D0E91D32527802B11DB15F781FB14C
